:100000000C942A000C944A020C9477020C94A402DB
:100010000C9447000C9447000C9447000C94470044
:100020000C9447000C9447000C9447000C94470034
:100030000C9447000C9447000C9447000C94470024
:100040000C9447000C9447000C9447000C94470014
:100050000C94470011241FBECFE5D8E0DEBFCDBF12
:1000600010E0A0E6B0E0E4E0F6E002C005900D92FA
:10007000AA36B107D9F720E0AAE6B0E001C01D9288
:10008000A737B207E1F70E9464000C9400030C94B8
:10009000000041E060916A0081E40E9415018091B6
:1000A0006A008F5F833008F082E080936A000895D1
:1000B00040E060916A0081E40E94150180916A002D
:1000C000815080936A00089541E060E081E40E94DD
:1000D0009E0041E061E081E40E949E0041E062E018
:1000E00081E40E949E0040E062E084E40E949E0061
:1000F00040E063E084E40E949E0040E062E084E42B
:100100000E94150140E063E084E40E9415010E9412
:10011000FC0280E00E94450281E00E94450240E02E
:1001200050E069E470E080E00E94D10240E050E0DD
:1001300068E570E081E00E94D102FFCF683008F0EE
:1001400070C0433008F06DC0823419F118F4813466
:1001500039F067C08334A9F1843409F44AC061C01E
:1001600041110AC02AB381E090E001C0880F6A956E
:10017000EAF7809582230BC0413009F054C02AB3BE
:1001800081E090E001C0880F6A95EAF7822B8ABB74
:100190004AC041110AC027B381E090E001C0880F36
:1001A0006A95EAF7809582230AC04130E1F527B3CA
:1001B00081E090E001C0880F6A95EAF7822B87BB47
:1001C00032C041110AC024B381E090E001C0880F21
:1001D0006A95EAF7809582230AC0413021F524B35D
:1001E00081E090E001C0880F6A95EAF7822B84BB1A
:1001F0001AC041110AC021B381E090E001C0880F0C
:100200006A95EAF7809582230AC0413061F421B3F0
:1002100081E090E001C0880F6A95EAF7822B81BBEC
:1002200002C081E0089580E00895683008F04BC076
:10023000423008F048C08234C1F018F4813431F003
:1002400042C0833409F1843471F13DC02BB381E0A5
:1002500090E001C0880F6A95EAF7411103C08095CC
:10026000822301C0822B8BBB2CC028B381E090E09D
:1002700001C0880F6A95EAF7411103C08095822377
:1002800001C0822B88BB1DC025B381E090E001C076
:10029000880F6A95EAF7411103C08095822301C057
:1002A000822B85BB0EC022B381E090E001C0880F95
:1002B0006A95EAF7411103C08095822301C0822B21
:1002C00082BB80E0089581E00895FA01683008F06B
:1002D00052C0823491F1C0F4813409F04CC029B38A
:1002E00081E090E0062E02C0880F991F0A94E2F781
:1002F00030E082239323062E02C0959587950A94B9
:10030000E2F7808389B32DC08334C9F0843499F532
:1003100020B381E090E0062E02C0880F991F0A9456
:10032000E2F730E082239323062E02C0959587954D
:100330000A94E2F7808380B314C026B301C023B3CC
:1003400081E090E0062E02C0880F991F0A94E2F720
:1003500030E08223932302C0959587956A95E2F752
:1003600007C090E002C0959587956A95E2F7817085
:10037000808380E0089581E008958130F1F018F0E5
:100380008230B1F13FC0611103C085B78C7F19C0C5
:10039000613031F485B78C7F85BF85B7816011C02E
:1003A000623031F485B78C7F85BF85B7826009C024
:1003B000633041F585B7836004C0611104C085B71F
:1003C000837F85BF1FC0613031F485B7837F85BFD0
:1003D00085B78460F6CF623031F485B7837F85BFFF
:1003E00085B78860EECF633069F485B78C60E9CF5C
:1003F000623019F484B78F7B04C0633019F484B77A
:10040000806484BF80E00895813049F018F0823024
:1004100079F015C08BB7613081F4806406C08BB76A
:10042000613011F4806801C08F778BBF80E0089540
:100430008BB7613011F48062F8CF8F7BF6CF81E00B
:1004400008951F93CF93DF9310E0809169001817F0
:1004500098F4C12FD0E0CE01880F991FC80FD91F83
:10046000C05ADF4F6A8188810E94040269818881B5
:100470000E94BD011F5FE9CF80E0DF91CF911F9106
:1004800008950E94BD0180E0089561E00E94040289
:1004900080E008951F920F920FB60F9211242F93B0
:1004A0003F934F935F936F937F938F939F93AF93FC
:1004B000BF93EF93FF93E0917500F0917600309732
:1004C00029F080916F00909170000995FF91EF9154
:1004D000BF91AF919F918F917F916F915F914F915C
:1004E0003F912F910F900FBE0F901F9018951F9264
:1004F0000F920FB60F9211242F933F934F935F9358
:100500006F937F938F939F93AF93BF93EF93FF93DB
:10051000E0917300F0917400309729F080916D00A4
:1005200090916E000995FF91EF91BF91AF919F91CE
:100530008F917F916F915F914F913F912F910F908C
:100540000FBE0F901F9018951F920F920FB60F922B
:1005500011242F933F934F935F936F937F938F93C8
:100560009F93AF93BF93EF93FF93E0917100F0914E
:100570007200309729F080916B0090916C00099582
:10058000FF91EF91BF91AF919F918F917F916F916B
:100590005F914F913F912F910F900FBE0F901F9041
:1005A0001895833020F061157105B9F421C08111CF
:1005B00009C070937600609375005093700040936B
:1005C0006F000895813049F4709374006093730054
:1005D00050936E0040936D000DC0823059F47093BB
:1005E00072006093710050936C0040936B0002C0E6
:1005F00081E0089580E0089578940895F89408952E
:04060000F894FFCF9C
:0A06040000030102030101030203D9
:00000001FF
