:100000000C942A000C9434000C9434000C943400AA
:100010000C9434000C9434000C9434000C94340090
:100020000C9434000C9434000C9434000C94340080
:100030000C9434000C9434000C9434000C94340070
:100040000C9434000C9434000C9434000C94340060
:100050000C94340011241FBECFE5D8E0DEBFCDBF25
:100060000E9436000C949E010C94000041E060E078
:1000700081E40E94490060E081E40E9468012FEF62
:100080008FE097E2215080409040E1F700C00000EF
:10009000F2CF683008F070C0433008F06DC0823491
:1000A00019F118F4813439F067C08334A9F184342C
:1000B00009F44AC061C041110AC02AB381E090E04E
:1000C00001C0880F6A95EAF7809582230BC0413002
:1000D00009F054C02AB381E090E001C0880F6A950E
:1000E000EAF7822B8ABB4AC041110AC027B381E0DC
:1000F00090E001C0880F6A95EAF7809582230AC0D4
:100100004130E1F527B381E090E001C0880F6A95A6
:10011000EAF7822B87BB32C041110AC024B381E0C9
:1001200090E001C0880F6A95EAF7809582230AC0A3
:10013000413021F524B381E090E001C0880F6A9539
:10014000EAF7822B84BB1AC041110AC021B381E0B7
:1001500090E001C0880F6A95EAF7809582230AC073
:10016000413061F421B381E090E001C0880F6A95CD
:10017000EAF7822B81BB02C081E0089580E00895F8
:10018000683008F04BC0423008F048C08234C1F0FB
:1001900018F4813431F042C0833409F1843471F1B0
:1001A0003DC02BB381E090E001C0880F6A95EAF76B
:1001B000411103C08095822301C0822B8BBB2CC0D0
:1001C00028B381E090E001C0880F6A95EAF74111F9
:1001D00003C08095822301C0822B88BB1DC025B33C
:1001E00081E090E001C0880F6A95EAF7411103C0F1
:1001F0008095822301C0822B85BB0EC022B381E093
:1002000090E001C0880F6A95EAF7411103C080951C
:10021000822301C0822B82BB80E0089581E0089593
:10022000FA01683008F052C0823491F1C0F4813490
:1002300009F04CC029B381E090E0062E02C0880F7F
:10024000991F0A94E2F730E082239323062E02C01E
:10025000959587950A94E2F7808389B32DC08334FE
:10026000C9F0843499F520B381E090E0062E02C0F5
:10027000880F991F0A94E2F730E082239323062E19
:1002800002C0959587950A94E2F7808380B314C0E5
:1002900026B301C023B381E090E0062E02C0880F90
:1002A000991F0A94E2F730E08223932302C09595C8
:1002B00087956A95E2F707C090E002C0959587950B
:1002C0006A95E2F78170808380E0089581E0089567
:1002D000683090F58234D9F060F4813469F52BB33D
:1002E00081E090E001C0880F6A95EAF782278BBB16
:1002F00021C08334B1F08434F9F422B381E090E07A
:1003000001C0880F6A95EAF7822782BB13C028B321
:1003100081E090E001C0880F6A95EAF7822788BBE8
:1003200009C025B381E090E001C0880F6A95EAF723
:10033000822785BB80E0089581E00895F894FFCF7F
:00000001FF
