:100000000C942A000C943F000C943F000C943F0089
:100010000C943F000C943F000C943F000C943F0064
:100020000C943F000C943F000C943F000C943F0054
:100030000C943F000C943F000C943F000C943F0044
:100040000C943F000C943F000C943F000C943F0034
:100050000C943F0011241FBECFE5D8E0DEBFCDBF1A
:1000600010E0A0E6B0E0E2E7FAE002C005900D92F1
:10007000AC37B107D9F70E9441000C9437050C94B6
:100080000000CF93DF9300D01F92CDB7DEB70E9460
:1000900095030E946D021FEF1B831A8319838B81C6
:1000A0008F3F29F4CE0103960E941704F8CF0E94D7
:1000B000160389818F3F29F4CE0101960E9417040F
:1000C000F8CF0E9416038A818F3F29F4CE01029651
:1000D0000E941704F8CF0E9416030E941B0361E0E0
:1000E00082E00E94FF028B8180538B836A81605380
:1000F0006A8399819D3279F030F49B32F1F470E09B
:10010000680F711D0DC09F3281F09837B1F4869F42
:10011000B001112405C090E09C01261B3109B901F2
:10012000072E000C880B990B06C00E94EF04682F65
:1001300070E080E090E00E9421031B838B818F3F61
:1001400029F4CE0103960E941704F8CF0E941003F1
:10015000A3CF683008F070C0433008F06DC082341F
:1001600019F118F4813439F067C08334A9F184346B
:1001700009F44AC061C041110AC02AB381E090E08D
:1001800001C0880F6A95EAF7809582230BC0413041
:1001900009F054C02AB381E090E001C0880F6A954D
:1001A000EAF7822B8ABB4AC041110AC027B381E01B
:1001B00090E001C0880F6A95EAF7809582230AC013
:1001C0004130E1F527B381E090E001C0880F6A95E6
:1001D000EAF7822B87BB32C041110AC024B381E009
:1001E00090E001C0880F6A95EAF7809582230AC0E3
:1001F000413021F524B381E090E001C0880F6A9579
:10020000EAF7822B84BB1AC041110AC021B381E0F6
:1002100090E001C0880F6A95EAF7809582230AC0B2
:10022000413061F421B381E090E001C0880F6A950C
:10023000EAF7822B81BB02C081E0089580E0089537
:10024000683008F04BC0423008F048C08234C1F03A
:1002500018F4813431F042C0833409F1843471F1EF
:100260003DC02BB381E090E001C0880F6A95EAF7AA
:10027000411103C08095822301C0822B8BBB2CC00F
:1002800028B381E090E001C0880F6A95EAF7411138
:1002900003C08095822301C0822B88BB1DC025B37B
:1002A00081E090E001C0880F6A95EAF7411103C030
:1002B0008095822301C0822B85BB0EC022B381E0D2
:1002C00090E001C0880F6A95EAF7411103C080955C
:1002D000822301C0822B82BB80E0089581E00895D3
:1002E000FA01683008F052C0823491F1C0F48134D0
:1002F00009F04CC029B381E090E0062E02C0880FBF
:10030000991F0A94E2F730E082239323062E02C05D
:10031000959587950A94E2F7808389B32DC083343D
:10032000C9F0843499F520B381E090E0062E02C034
:10033000880F991F0A94E2F730E082239323062E58
:1003400002C0959587950A94E2F7808380B314C024
:1003500026B301C023B381E090E0062E02C0880FCF
:10036000991F0A94E2F730E08223932302C0959507
:1003700087956A95E2F707C090E002C0959587954A
:100380006A95E2F78170808380E0089581E00895A6
:10039000FF920F931F93CF93DF93F82E162FD42F36
:1003A000C22F402F61E082E40E94200141E063E01F
:1003B00082E40E9420014F2D67E081E40E94200129
:1003C000412F66E081E40E9420014D2F65E081E429
:1003D0000E9420014C2F64E081E40E94200140E053
:1003E00063E082E40E9420018FE39FE10197F1F72F
:1003F00000C00000DF91CF911F910F91FF900895F1
:10040000CF93C82F462F61E082E40E94200140E094
:1004100063E082E40E9420014C2F441F4427441FC4
:1004200067E081E40E942001C6FB442740F966E0B2
:1004300081E40E942001C5FB442740F965E081E486
:100440000E942001C4FB442740F964E081E40E943B
:10045000200141E063E082E40E9420018FE39FE1FC
:100460000197F1F700C0000040E063E082E40E94E1
:100470002001C3FB442740F967E081E40E9420018A
:10048000C2FB442740F966E081E40E942001C1FBE1
:10049000442740F965E081E40E9420014C2F41701F
:1004A00064E081E40E94200141E063E082E40E9474
:1004B00020018FE39FE10197F1F700C0000040E0C9
:1004C00063E082E40E9420018FE39FE10197F1F74E
:1004D00000C0000080E0CF9108950F932FEF8FE8C8
:1004E00091E0215080409040E1F700C0000041E0E1
:1004F00061E082E40E94A90041E062E082E40E949F
:10050000A90041E063E082E40E94A90041E067E0C5
:1005100081E40E94A90041E066E081E40E94A90014
:1005200041E065E081E40E94A90041E064E081E4EB
:100530000E94A90000E020E041E060E080E00E942D
:10054000C80120E041E060E080E00E94C80121E0B5
:1005500041E061E081E00E94C8018FE39FE10197E3
:10056000F1F700C0000020E040E060E080E00E9481
:10057000C80121E041E061E081E00E94C8018FE311
:100580009FE10197F1F700C0000020E040E060E04B
:1005900080E00E94C80121E040E060E080E00E942D
:1005A000C8018FE39FE10197F1F700C0000020E050
:1005B00040E060E080E00E94C80121E041E060E0AE
:1005C00080E00E94C8018FE39FE10197F1F700C02E
:1005D000000080E00F910895CF93DF93EC018881B4
:1005E000882351F041E061E082E40E94200161E053
:1005F00089910E940002F3CFDF91CF91089583305B
:1006000068F4613158F490E4899F600D1124862FBD
:1006100060E0815C0E94000280E0089581E008951E
:1006200060E081E00E94000280E0089561E00E94A5
:10063000000280E0089560E08CE00E94000280E00B
:1006400008954F925F926F927F928F929F92AF9296
:10065000BF92CF92DF92EF92FF920F931F93CF93AF
:10066000DF93EB01182F092F6B01E82EF92E9AE08A
:10067000892E912CA12CB12C2AE0422E512C612CD8
:10068000712C85E6C816D104E104F10488F0C70195
:10069000B601A30192010E94FB0469017A01AAE05C
:1006A000B0E0A50194010E941D054B015C01E9CF5A
:1006B0008AE0C82ED12CE12CF12C81149104A104E4
:1006C000B104D9F0BE01812F902FA50194010E94A1
:1006D000FB04CA01B901A70196010E94FB04862F01
:1006E00061E0805D0E940002C501B401A70196018E
:1006F0000E94FB0449015A01E0CF80E0DF91CF91D5
:100700001F910F91FF90EF90DF90CF90BF90AF902F
:100710009F908F907F906F905F904F90089560E0D2
:100720008FE00E94000280E00895AF92BF92CF92C6
:10073000DF92EF92FF920F931F93CF93DF93CDB78A
:10074000DEB760970FB6F894DEBF0FBECDBF8091C5
:10075000600090916100A0916200B09163008D876C
:100760009E87AF87B88B409164005091650060917F
:1007700066007091670049875A876B877C878D83F5
:100780009E83AF83B8878091680090916900A091A3
:100790006A00B0916B0089839A83AB83BC838E011E
:1007A0000F5F1F4F7E0185E0E80EF11C5701F80135
:1007B000C1908F01F701D1907F0141E06C2D8D2D0B
:1007C0000E94A90041E06C2D8D2D0E9420010A1588
:1007D0001B0569F78E01075F1F4F7E01FDE0EF0EDD
:1007E000F11C5701F801C1908F01F701D1907F01F1
:1007F00040E06C2D8D2D0E94A90041E06C2D8D2DC7
:100800000E9420010A151B0569F780E060960FB66B
:10081000F894DEBF0FBECDBFDF91CF911F910F9136
:10082000FF90EF90DF90CF90BF90AF9008952F9200
:100830003F924F925F926F927F928F929F92AF9270
:10084000BF92CF92DF92EF92FF920F931F93CF93BD
:10085000DF93CDB7DEB7A3970FB6F894DEBF0FBE18
:10086000CDBF6C018091600090916100A091620009
:10087000B09163008D8F9E8FAF8FB8A340916400BD
:10088000509165006091660070916700498F5A8FA2
:100890006B8F7C8F8D8B9E8BAF8BB88F8091680018
:1008A00090916900A0916A00B0916B00898B9A8B3E
:1008B000AB8BBC8B8FEF89A3F6018083CE01419671
:1008C0009BA38AA33E0195E1690E711CE12CF12CDA
:1008D000EAA1FBA12190FBA3EAA3F30131903F0120
:1008E00040E0622D832D0E9420014E01F9E18F0E20
:1008F000911C5E018DE1A80EB11C00E010E0F40136
:1009000051904F01F50141905F01AE014F5D5F4F86
:10091000652D842D0E94700189A1811130C0AE0126
:100920004F5D5F4F652D842D0E94700189A181115B
:1009300026C080E1ECE6F0E0DE01119601900D9218
:100940008A95E1F7F801EE0FFF1FEE0FFF1F81E020
:1009500090E08C0F9D1FE80FF91FEE0DFF1D8081A9
:10096000F601808389A1811108C0AE014F5D5F4F00
:10097000652D842D0E947001F5CF11E007C00F5F37
:100980001F4F0430110509F0BACF10E041E0622D8D
:10099000832D0E942001111108C0FFEFEF1AFF0AFA
:1009A00084E0E816F10409F093CF80E0A3960FB637
:1009B000F894DEBF0FBECDBFDF91CF911F910F9195
:1009C000FF90EF90DF90CF90BF90AF909F908F906F
:1009D0007F906F905F904F903F902F900895991B5C
:1009E00079E004C0991F961708F0961B881F7A9526
:1009F000C9F780950895A1E21A2EAA1BBB1BFD0121
:100A00000DC0AA1FBB1FEE1FFF1FA217B307E407ED
:100A1000F50720F0A21BB30BE40BF50B661F771F45
:100A2000881F991F1A9469F7609570958095909525
:100A30009B01AC01BD01CF0108950E942805A59F2F
:100A4000900DB49F900DA49F800D911D11240895C9
:100A5000A29FB001B39FC001A39F700D811D1124FF
:100A6000911DB29F700D811D1124911D0895F89460
:020A7000FFCFB6
:100A72004444444400010203040506073738392F71
:0C0A8200343536783132332D43303D2BB3
:00000001FF
