:100000000C942A000C943F000C943F000C943F0089
:100010000C943F000C943F000C943F000C943F0064
:100020000C943F000C943F000C943F000C943F0054
:100030000C943F000C943F000C943F000C943F0044
:100040000C943F000C943F000C943F000C943F0034
:100050000C943F0011241FBECFE5D8E0DEBFCDBF1A
:1000600010E0A0E6B0E0E6ECFCE002C005900D92E6
:10007000A239B107D9F70E9441000C9461060C9493
:100080000000CF93DF931F92CDB7DEB70E944D04DF
:100090000E94FB041FEFCE0101960E947D0589811D
:1000A0008F3FC9F30E94F6041983F5CF683008F03A
:1000B00070C0433008F06DC0823419F118F48134F7
:1000C00039F067C08334A9F1843409F44AC061C0AF
:1000D00041110AC02AB381E090E001C0880F6A95FF
:1000E000EAF7809582230BC0413009F054C02AB34F
:1000F00081E090E001C0880F6A95EAF7822B8ABB05
:100100004AC041110AC027B381E090E001C0880FC6
:100110006A95EAF7809582230AC04130E1F527B35A
:1001200081E090E001C0880F6A95EAF7822B87BBD7
:1001300032C041110AC024B381E090E001C0880FB1
:100140006A95EAF7809582230AC0413021F524B3ED
:1001500081E090E001C0880F6A95EAF7822B84BBAA
:100160001AC041110AC021B381E090E001C0880F9C
:100170006A95EAF7809582230AC0413061F421B381
:1001800081E090E001C0880F6A95EAF7822B81BB7D
:1001900002C081E0089580E00895683008F04BC007
:1001A000423008F048C08234C1F018F4813431F094
:1001B00042C0833409F1843471F13DC02BB381E036
:1001C00090E001C0880F6A95EAF7411103C080955D
:1001D000822301C0822B8BBB2CC028B381E090E02E
:1001E00001C0880F6A95EAF7411103C08095822308
:1001F00001C0822B88BB1DC025B381E090E001C007
:10020000880F6A95EAF7411103C08095822301C0E7
:10021000822B85BB0EC022B381E090E001C0880F25
:100220006A95EAF7411103C08095822301C0822BB1
:1002300082BB80E0089581E00895FA01683008F0FB
:1002400052C0823491F1C0F4813409F04CC029B31A
:1002500081E090E0062E02C0880F991F0A94E2F711
:1002600030E082239323062E02C0959587950A9449
:10027000E2F7808389B32DC08334C9F0843499F5C3
:1002800020B381E090E0062E02C0880F991F0A94E7
:10029000E2F730E082239323062E02C095958795DE
:1002A0000A94E2F7808380B314C026B301C023B35D
:1002B00081E090E0062E02C0880F991F0A94E2F7B1
:1002C00030E08223932302C0959587956A95E2F7E3
:1002D00007C090E002C0959587956A95E2F7817016
:1002E000808380E0089581E00895AF92BF92CF921D
:1002F000DF92EF92FF920F931F93CF93DF93CDB7CF
:10030000DEB760970FB6F894DEBF0FBECDBFA982EF
:10031000BA82CB82DC82ED82FE820F831887298726
:100320003A874B875C876D877E878F87988BAA205B
:10033000F1F0CE0107967C018E010D5F1F4FBB20AF
:1003400059F0F80161918F0141E08A850E945600C1
:10035000E016F106B1F728C0F80161918F0141E084
:1003600086810E945600E016F106B1F71DC0BB2041
:1003700051F010E041E0612F8A850E9456001F5F16
:100380001730C1F711C08E010D5F1F4F7E01FAE0DB
:10039000EF0EF11CF80161918F0141E086810E940E
:1003A00056000E151F05B1F760960FB6F894DEBF24
:1003B0000FBECDBFDF91CF911F910F91FF90EF90B6
:1003C000DF90CF90BF90AF900895AF92BF92CF9241
:1003D000DF92EF92FF920F931F93CF93DF93CDB7EE
:1003E000DEB760970FB6F894DEBF0FBECDBFA9820F
:1003F000BA82CB82DC82ED82FE820F831887298746
:100400003A874B875C876D877E878F87988BA11093
:1004100002C007E001C004E08A819E012F5F3F4FC8
:10042000690110E07901882381F0C7018C199D09C9
:1004300080179107D4F440E0F70162818A850E9419
:10044000CD00FFEFEF1AFF0AF0CFC7018C199D090D
:100450008017910754F440E0F701628181850E9482
:10046000CD00FFEFEF1AFF0AF0CF60960FB6F894B9
:10047000DEBF0FBECDBFDF91CF911F910F91FF90D7
:10048000EF90DF90CF90BF90AF9008957F928F92C2
:100490009F92AF92BF92CF92DF92EF92FF920F9313
:1004A0001F93CF93DF93CDB7DEB760970FB6F89465
:1004B000DEBF0FBECDBFA982BA82CB82DC82ED82C5
:1004C000FE820F83188729873A874B875C876D8761
:1004D0007E878F87988BA1100AC0E82DF0E0EE0F81
:1004E000FF1FE458FF4F808047E0742E02C024E0D5
:1004F000722EA980BA80CB80DC80ED80FE800F81D7
:10050000188529853A854B855C856D857E858F8527
:1005100098890E94E5018A81912C8E010D5F1F4F01
:10052000E12CF12CCC24C394D12C8823D9F0F801F0
:1005300061918F01A6010E2C02C0440F551F0A9431
:10054000E2F7482159210E2C02C0559547950A948F
:10055000E2F78A850E94CD00FFEFEF1AFF0AE71449
:1005600030F31AC0F80161918F01A6010E2C02C070
:10057000440F551F0A94E2F7482159210E2C02C05E
:10058000559547950A94E2F786810E94CD00FFEFCA
:10059000EF1AFF0AE71430F360960FB6F894DEBF47
:1005A0000FBECDBFDF91CF911F910F91FF90EF90C4
:1005B000DF90CF90BF90AF909F908F907F900895E5
:1005C0000C945600CF93DF931F92CDB7DEB7AE01E8
:1005D0004F5F5F4F0E941D0189810F90DF91CF9186
:1005E0000895AF92BF92CF92DF92EF92FF920F9356
:1005F0001F93CF93DF93CDB7DEB760970FB6F89414
:10060000DEBF0FBECDBF0E94750141E061E082E414
:100610000E94560041E062E082E460960FB6F894D2
:10062000DEBF0FBECDBFDF91CF911F910F91FF9025
:10063000EF90DF90CF90BF90AF900C9456007F92D8
:100640008F929F92AF92BF92CF92DF92EF92FF92E2
:100650000F931F93CF93DF93CDB7DEB760970FB69D
:10066000F894DEBF0FBECDBFA982BA82CB82DC82F6
:10067000ED82FE820F83188729873A874B875C8734
:100680006D877E878F87988B41E061E082E40E94CE
:10069000CD008AE0982E882D692D0E945506782E6F
:1006A000892EA980BA80CB80DC80ED80FE800F810E
:1006B000188529853A854B855C856D857E858F8576
:1006C00098890E9446028FE39CE90197F1F700C0E8
:1006D000000040E061E082E40E94CD0041E062E081
:1006E00082E40E94CD00872D692D0E945506892E37
:1006F000A980BA80CB80DC80ED80FE800F811885D8
:1007000029853A854B855C856D857E858F859889A1
:100710000E9446028FE39CE90197F1F700C00000B8
:1007200040E062E082E460960FB6F894DEBF0FBE50
:10073000CDBFDF91CF911F910F91FF90EF90DF9090
:10074000CF90BF90AF909F908F907F900C94CD00F2
:10075000FF920F931F93CF93DF93F82E162FD42F72
:10076000C22F402F61E082E40E94CD0041E063E0AF
:1007700082E40E94CD004F2D67E081E40E94CD000D
:10078000412F66E081E40E94CD004D2F65E081E4B9
:100790000E94CD004C2F64E081E40E94CD0040E037
:1007A00063E082E40E94CD008FE39FE10197F1F7BF
:1007B00000C00000DF91CF911F910F91FF9008952D
:1007C000CF93C82F462F61E082E40E94CD0040E025
:1007D00063E082E40E94CD004C2F441F4427441F55
:1007E00067E081E40E94CD00C6FB442740F966E043
:1007F00081E40E94CD00C5FB442740F965E081E417
:100800000E94CD00C4FB442740F964E081E40E94CB
:10081000CD0041E063E082E40E94CD008FE39FE1E0
:100820000197F1F700C0000040E063E082E40E941D
:10083000CD00C3FB442740F967E081E40E94CD006E
:10084000C2FB442740F966E081E40E94CD00C1FB71
:10085000442740F965E081E40E94CD004C2F4170AF
:1008600064E081E40E94CD0041E063E082E40E9404
:10087000CD008FE39FE10197F1F700C0000040E059
:1008800063E082E40E94CD008FE39FE10197F1F7DE
:1008900000C0000080E0CF9108950F932FEF8FE804
:1008A00091E0215080409040E1F700C0000041E01D
:1008B00061E082E40E94560041E062E082E40E942E
:1008C000560041E063E082E40E94560041E067E0A8
:1008D00081E40E94560041E066E081E40E945600F7
:1008E00041E065E081E40E94560041E064E081E47B
:1008F0000E94560000E020E041E060E080E00E94BD
:10090000A80320E041E060E080E00E94A80321E02D
:1009100041E061E081E00E94A8038FE39FE101973D
:10092000F1F700C0000020E040E060E080E00E94BD
:10093000A80321E041E061E081E00E94A8038FE389
:100940009FE10197F1F700C0000020E040E060E087
:1009500080E00E94A80321E040E060E080E00E9487
:10096000A8038FE39FE10197F1F700C0000020E0AA
:1009700040E060E080E00E94A80321E041E060E008
:1009800080E00E94A8038FE39FE10197F1F700C088
:10099000000080E00F910895CF93DF93EC018881F0
:1009A000882351F041E061E082E40E94CD0061E0E3
:1009B00089910E94E003F3CFDF91CF9108958330B6
:1009C00068F4613158F490E4899F600D1124862FFA
:1009D00060E0815C0E94E00380E0089581E008957A
:1009E00060E081E00E94E00380E0089561E00E9401
:1009F000E00380E00895AF92BF92CF92DF92EF9232
:100A0000FF920F931F93CF93DF93CDB7DEB760971D
:100A10000FB6F894DEBF0FBECDBF809160009091FD
:100A20006100A0916200B09163008D879E87AF87BF
:100A3000B88B4091640050916500609166007091A0
:100A4000670049875A876B877C878D839E83AF8336
:100A5000B8878091680090916900A0916A00B09178
:100A60006B0089839A83AB83BC838E010F5F1F4F1A
:100A70007E0185E0E80EF11C5701F801C1908F015D
:100A8000F701D1907F0141E06C2D8D2D0E94560021
:100A900041E06C2D8D2D0E94CD000A151B0569F7D4
:100AA0008E01075F1F4F7E01FDE0EF0EF11C570125
:100AB000F801C1908F01F701D1907F0140E06C2DCA
:100AC0008D2D0E94560041E06C2D8D2D0E94CD0091
:100AD0000A151B0569F780E060960FB6F894DEBF33
:100AE0000FBECDBFDF91CF911F910F91FF90EF907F
:100AF000DF90CF90BF90AF9008952F923F924F928A
:100B00005F926F927F928F929F92AF92BF92CF929D
:100B1000DF92EF92FF920F931F93CF93DF93CDB7A6
:100B2000DEB7A3970FB6F894DEBF0FBECDBF6C0142
:100B30008091600090916100A0916200B09163008B
:100B40008D8F9E8FAF8FB8A3409164005091650048
:100B50006091660070916700498F5A8F6B8F7C8F10
:100B60008D8B9E8BAF8BB88F8091680090916900C0
:100B7000A0916A00B0916B00898B9A8BAB8BBC8B78
:100B80008FEF89A3F6018083CE0141969BA38AA3B0
:100B90003E0195E1690E711CE12CF12CEAA1FBA14B
:100BA0002190FBA3EAA3F30131903F0140E0622DC5
:100BB000832D0E94CD004E01F9E18F0E911C5E0144
:100BC0008DE1A80EB11C00E010E0F40151904F013E
:100BD000F50141905F01AE014F5D5F4F652D842DA2
:100BE0000E941D0189A1811130C0AE014F5D5F4F90
:100BF000652D842D0E941D0189A1811126C080E1EF
:100C0000ECE6F0E0DE01119601900D928A95E1F795
:100C1000F801EE0FFF1FEE0FFF1F81E090E08C0F39
:100C20009D1FE80FF91FEE0DFF1D8081F6018083E7
:100C300089A1811108C0AE014F5D5F4F652D842DE4
:100C40000E941D01F5CF11E007C00F5F1F4F043058
:100C5000110509F0BACF10E041E0622D832D0E940A
:100C6000CD00111108C0FFEFEF1AFF0A84E0E8166B
:100C7000F10409F093CF80E0A3960FB6F894DEBF9D
:100C80000FBECDBFDF91CF911F910F91FF90EF90DD
:100C9000DF90CF90BF90AF909F908F907F906F909C
:100CA0005F904F903F902F900895991B79E004C07A
:100CB000991F961708F0961B881F7A95C9F780959B
:060CC0000895F894FFCF37
:100CC6004444444400010203040506073738392F1B
:100CD600343536783132332D43303D2B3F00060014
:100CE6005B004F0066006D007D0007007F006F000F
:020CF6000000FC
:00000001FF
