:100000000C942A000C94AB070C94D8070C940508A8
:100010000C9447000C9447000C94A8080C944700DB
:100020000C9447000C9447000C9447000C94470034
:100030000C9447000C9447000C9447000C94470024
:100040000C9447000C9447000C9447000C94470014
:100050000C94470011241FBECFE5D8E0DEBFCDBF12
:1000600010E0A0E6B0E0EEE3F2E102C005900D92F0
:10007000AC39B107D9F720E0ACE9B0E001C01D927E
:10008000AC3AB207E1F70E9449000C941D090C94A8
:1000900000000E94610841E062E082E40E94590091
:1000A00062E082E40E94780184E690E00E947B088E
:1000B000F7CF683008F070C0433008F06DC082346C
:1000C00019F118F4813439F067C08334A9F184340C
:1000D00009F44AC061C041110AC02AB381E090E02E
:1000E00001C0880F6A95EAF7809582230BC04130E2
:1000F00009F054C02AB381E090E001C0880F6A95EE
:10010000EAF7822B8ABB4AC041110AC027B381E0BB
:1001100090E001C0880F6A95EAF7809582230AC0B3
:100120004130E1F527B381E090E001C0880F6A9586
:10013000EAF7822B87BB32C041110AC024B381E0A9
:1001400090E001C0880F6A95EAF7809582230AC083
:10015000413021F524B381E090E001C0880F6A9519
:10016000EAF7822B84BB1AC041110AC021B381E097
:1001700090E001C0880F6A95EAF7809582230AC053
:10018000413061F421B381E090E001C0880F6A95AD
:10019000EAF7822B81BB02C081E0089580E00895D8
:1001A000683008F04BC0423008F048C08234C1F0DB
:1001B00018F4813431F042C0833409F1843471F190
:1001C0003DC02BB381E090E001C0880F6A95EAF74B
:1001D000411103C08095822301C0822B8BBB2CC0B0
:1001E00028B381E090E001C0880F6A95EAF74111D9
:1001F00003C08095822301C0822B88BB1DC025B31C
:1002000081E090E001C0880F6A95EAF7411103C0D0
:100210008095822301C0822B85BB0EC022B381E072
:1002200090E001C0880F6A95EAF7411103C08095FC
:10023000822301C0822B82BB80E0089581E0089573
:10024000FA01683008F052C0823491F1C0F4813470
:1002500009F04CC029B381E090E0062E02C0880F5F
:10026000991F0A94E2F730E082239323062E02C0FE
:10027000959587950A94E2F7808389B32DC08334DE
:10028000C9F0843499F520B381E090E0062E02C0D5
:10029000880F991F0A94E2F730E082239323062EF9
:1002A00002C0959587950A94E2F7808380B314C0C5
:1002B00026B301C023B381E090E0062E02C0880F70
:1002C000991F0A94E2F730E08223932302C09595A8
:1002D00087956A95E2F707C090E002C095958795EB
:1002E0006A95E2F78170808380E0089581E0089547
:1002F000683090F58234D9F060F4813469F52BB31D
:1003000081E090E001C0880F6A95EAF782278BBBF5
:1003100021C08334B1F08434F9F422B381E090E059
:1003200001C0880F6A95EAF7822782BB13C028B301
:1003300081E090E001C0880F6A95EAF7822788BBC8
:1003400009C025B381E090E001C0880F6A95EAF703
:10035000822785BB80E0089581E00895AF92BF9227
:10036000CF92DF92EF92FF920F931F93CF93DF9381
:10037000CDB7DEB760970FB6F894DEBF0FBECDBF26
:10038000A982BA82CB82DC82ED82FE820F8318873B
:1003900029873A874B875C876D877E878F87988B05
:1003A000AA20F1F0CE0107967C018E010D5F1F4F50
:1003B000BB2059F0F80161918F0141E08A850E94CC
:1003C0005900E016F106B1F728C0F80161918F01DC
:1003D00041E086810E945900E016F106B1F71DC088
:1003E000BB2051F010E041E0612F8A850E94590046
:1003F0001F5F1730C1F711C08E010D5F1F4F7E01C7
:10040000FAE0EF0EF11CF80161918F0141E0868165
:100410000E9459000E151F05B1F760960FB6F894AB
:10042000DEBF0FBECDBFDF91CF911F910F91FF9027
:10043000EF90DF90CF90BF90AF900895AF92BF92B2
:10044000CF92DF92EF92FF920F931F93CF93DF93A0
:10045000CDB7DEB760970FB6F894DEBF0FBECDBF45
:10046000A982BA82CB82DC82ED82FE820F8318875A
:1004700029873A874B875C876D877E878F87988B24
:10048000A11002C007E001C004E08A819E012F5F35
:100490003F4F690110E07901882381F0C7018C1971
:1004A0009D0980179107D4F440E0F70162818A85A5
:1004B0000E94D000FFEFEF1AFF0AF0CFC7018C199E
:1004C0009D098017910754F440E0F701628181850E
:1004D0000E94D000FFEFEF1AFF0AF0CF60960FB630
:1004E000F894DEBF0FBECDBFDF91CF911F910F916A
:1004F000FF90EF90DF90CF90BF90AF9008957F92E4
:100500008F929F92AF92BF92CF92DF92EF92FF9223
:100510000F931F93CF93DF93CDB7DEB760970FB6DE
:10052000F894DEBF0FBECDBFA982BA82CB82DC8237
:10053000ED82FE820F83188729873A874B875C8775
:100540006D877E878F87988BA1100AC0E82DF0E019
:10055000EE0FFF1FEA57FF4F808047E0742E02C066
:1005600024E0722EA980BA80CB80DC80ED80FE80F2
:100570000F81188529853A854B855C856D857E853B
:100580008F8598890E941E028A81912C8E010D5FB1
:100590001F4FE12CF12CCC24C394D12C8823D9F00B
:1005A000F80161918F01A6010E2C02C0440F551F66
:1005B0000A94E2F7482159210E2C02C0559547951F
:1005C0000A94E2F78A850E94D000FFEFEF1AFF0A33
:1005D000E71430F31AC0F80161918F01A6010E2CC7
:1005E00002C0440F551F0A94E2F7482159210E2CEE
:1005F00002C0559547950A94E2F786810E94D00083
:10060000FFEFEF1AFF0AE71430F360960FB6F89485
:10061000DEBF0FBECDBFDF91CF911F910F91FF9035
:10062000EF90DF90CF90BF90AF909F908F907F9092
:1006300008950C945900CF93DF931F92CDB7DEB786
:10064000AE014F5F5F4F0E94200189810F90DF91C3
:10065000CF910895AF92BF92CF92DF92EF92FF9227
:100660000F931F93CF93DF93CDB7DEB760970FB68D
:10067000F894DEBF0FBECDBF0E94AE0141E061E045
:1006800082E40E94590041E062E082E460960FB685
:10069000F894DEBF0FBECDBFDF91CF911F910F91B8
:1006A000FF90EF90DF90CF90BF90AF900C945900E7
:1006B0007F928F929F92AF92BF92CF92DF92EF92F2
:1006C000FF920F931F93CF93DF93CDB7DEB7609761
:1006D0000FB6F894DEBF0FBECDBFA982BA82CB821F
:1006E000DC82ED82FE820F83188729873A874B8749
:1006F0005C876D877E878F87988B41E061E082E41D
:100700000E94D0008AE0982E882D692D0E94D5087D
:10071000782E892EA980BA80CB80DC80ED80FE8087
:100720000F81188529853A854B855C856D857E8589
:100730008F8598890E947F028FE39CE90197F1F7EA
:1007400000C0000040E061E082E40E94D00041E08F
:1007500062E082E40E94D000872D692D0E94D508B6
:10076000892EA980BA80CB80DC80ED80FE800F814D
:10077000188529853A854B855C856D857E858F85B5
:1007800098890E947F028FE39CE90197F1F700C0EE
:10079000000040E062E082E460960FB6F894DEBFAD
:1007A0000FBECDBFDF91CF911F910F91FF90EF90C2
:1007B000DF90CF90BF90AF909F908F907F900C94E0
:1007C000D000FF920F931F93CF93DF93F82E162F35
:1007D000D42FC22F402F61E082E40E94D00041E07C
:1007E00063E082E40E94D0004F2D67E081E40E9424
:1007F000D000412F66E081E40E94D0004D2F65E0DB
:1008000081E40E94D0004C2F64E081E40E94D0007B
:1008100040E063E082E40E94D0008FE39FE1019713
:10082000F1F700C00000DF91CF911F910F91FF9071
:100830000895CF93C82F462F61E082E40E94D00034
:1008400040E063E082E40E94D0004C2F441F442724
:10085000441F67E081E40E94D000C6FB442740F9B2
:1008600066E081E40E94D000C5FB442740F965E0C2
:1008700081E40E94D000C4FB442740F964E081E495
:100880000E94D00041E063E082E40E94D0008FE348
:100890009FE10197F1F700C0000040E063E082E4CF
:1008A0000E94D000C3FB442740F967E081E40E9426
:1008B000D000C2FB442740F966E081E40E94D000EA
:1008C000C1FB442740F965E081E40E94D0004C2F31
:1008D000417064E081E40E94D00041E063E082E482
:1008E0000E94D0008FE39FE10197F1F700C0000064
:1008F00040E063E082E40E94D0008FE39FE1019733
:10090000F1F700C0000080E0CF9108950F932FEF22
:100910008FE891E0215080409040E1F700C0000056
:1009200041E061E082E40E94590041E062E082E43B
:100930000E94590041E063E082E40E94590041E0D6
:1009400067E081E40E94590041E066E081E40E9492
:10095000590041E065E081E40E94590041E064E013
:1009600081E40E94590000E020E041E060E080E086
:100970000E94E10320E041E060E080E00E94E103AA
:1009800021E041E061E081E00E94E1038FE39FE12B
:100990000197F1F700C0000020E040E060E080E057
:1009A0000E94E10321E041E061E081E00E94E10377
:1009B0008FE39FE10197F1F700C0000020E040E0E5
:1009C00060E080E00E94E10321E040E060E080E040
:1009D0000E94E1038FE39FE10197F1F700C000005F
:1009E00020E040E060E080E00E94E10321E041E09F
:1009F00060E080E00E94E1038FE39FE10197F1F75F
:100A000000C0000080E00F910895CF93DF93EC01C8
:100A10008881882351F041E061E082E40E94D000A7
:100A200061E089910E941904F3CFDF91CF9108957D
:100A3000833068F4613158F490E4899F600D11248B
:100A4000862F60E0815C0E94190480E0089581E0B7
:100A5000089560E081E00E94190480E0089561E05B
:100A60000E94190480E008950F9300E020E040E028
:100A700060E080E00E94E10320E040E061E081E08E
:100A80000E94E10380E00F9108954F925F926F9270
:100A90007F928F929F92AF92BF92CF92DF92EF920E
:100AA000FF920F931F93CF93DF93EB01182F092F22
:100AB0006B01E82EF92E9AE0892E912CA12CB12CF5
:100AC0002AE0422E512C612C712C85E6C816D104E7
:100AD000E104F10488F0C701B601A30192010E946C
:100AE000E10869017A01AAE0B0E0A50194010E9441
:100AF00003094B015C01E9CF8AE0C82ED12CE12C1F
:100B0000F12C81149104A104B104D9F0BE01812F0C
:100B1000902FA50194010E94E108CA01B901A70123
:100B200096010E94E108862F61E0805D0E94190411
:100B3000C501B401A70196010E94E10849015A01CB
:100B4000E0CF80E0DF91CF911F910F91FF90EF9068
:100B5000DF90CF90BF90AF909F908F907F906F90DD
:100B60005F904F9008950F9300E020E040E060E038
:100B700080E00E94E10321E041E061E081E00E9429
:100B8000E10380E00F910895AF92BF92CF92DF9280
:100B9000EF92FF920F931F93CF93DF93CDB7DEB702
:100BA00060970FB6F894DEBF0FBECDBF80916A008C
:100BB00090916B00A0916C00B0916D008D879E8725
:100BC000AF87B88B40916E0050916F0060917000BC
:100BD0007091710049875A876B877C878D839E83CC
:100BE000AF83B8878091720090917300A0917400D8
:100BF000B091750089839A83AB83BC838E010F5FAC
:100C00001F4F7E0185E0E80EF11C5701F801C190ED
:100C10008F01F701D1907F0141E06C2D8D2D0E9455
:100C2000590041E06C2D8D2D0E94D0000A151B0546
:100C300069F78E01075F1F4F7E01FDE0EF0EF11C8B
:100C40005701F801C1908F01F701D1907F0140E079
:100C50006C2D8D2D0E94590041E06C2D8D2D0E9430
:100C6000D0000A151B0569F780E060960FB6F8946E
:100C7000DEBF0FBECDBFDF91CF911F910F91FF90CF
:100C8000EF90DF90CF90BF90AF9008952F923F925A
:100C90004F925F926F927F928F929F92AF92BF928C
:100CA000CF92DF92EF92FF920F931F93CF93DF9338
:100CB000CDB7DEB7A3970FB6F894DEBF0FBECDBF9A
:100CC0006C0180916A0090916B00A0916C00B091D2
:100CD0006D008D8F9E8FAF8FB8A340916E005091A5
:100CE0006F006091700070917100498F5A8F6B8F07
:100CF0007C8F8D8B9E8BAF8BB88F80917200909183
:100D00007300A0917400B0917500898B9A8BAB8BA6
:100D1000BC8B8FEF89A3F6018083CE0141969BA304
:100D20008AA33E0195E1690E711CE12CF12CEAA128
:100D3000FBA12190FBA3EAA3F30131903F0140E026
:100D4000622D832D0E94D0004E01F9E18F0E911C7F
:100D50005E018DE1A80EB11C00E010E0F40151909D
:100D60004F01F50141905F01AE014F5D5F4F652D71
:100D7000842D0E94200189A1811130C0AE014F5DF8
:100D80005F4F652D842D0E94200189A1811126C00D
:100D900080E1E6E7F0E0DE01119601900D928A9580
:100DA000E1F7F801EE0FFF1FEE0FFF1F81E090E06B
:100DB0008C0F9D1FE80FF91FEE0DFF1D8081F601BE
:100DC000808389A1811108C0AE014F5D5F4F652D01
:100DD000842D0E942001F5CF11E007C00F5F1F4F47
:100DE0000430110509F0BACF10E041E0622D832DE7
:100DF0000E94D000111108C0FFEFEF1AFF0A84E033
:100E0000E816F10409F093CF80E0A3960FB6F894AA
:100E1000DEBF0FBECDBFDF91CF911F910F91FF902D
:100E2000EF90DF90CF90BF90AF909F908F907F908A
:100E30006F905F904F903F902F9008958130F1F028
:100E400018F08230B1F13FC0611103C085B78C7FCB
:100E500019C0613031F485B78C7F85BF85B781605B
:100E600011C0623031F485B78C7F85BF85B7826051
:100E700009C0633041F585B7836004C0611104C0C7
:100E800085B7837F85BF1FC0613031F485B7837F0D
:100E900085BF85B78460F6CF623031F485B7837F34
:100EA00085BF85B78860EECF633069F485B78C6005
:100EB000E9CF623019F484B78F7B04C0633019F432
:100EC00084B7806484BF80E00895813049F018F0D1
:100ED000823079F015C08BB7613081F4806406C030
:100EE0008BB7613011F4806801C08F778BBF80E0D1
:100EF00008958BB7613011F48062F8CF8F7BF6CF05
:100F000081E008951F93CF93DF9310E080916900F3
:100F1000181798F4C12FD0E0CE01880F991FC80F81
:100F2000D91FC05ADF4F6A8188810E946507698195
:100F300088810E941E071F5FE9CF80E0DF91CF917B
:100F40001F9108950E941E0780E0089561E00E94AD
:100F5000650780E008951F920F920FB60F9211243B
:100F60002F933F934F935F936F937F938F939F93B1
:100F7000AF93BF93EF93FF93E091A600F091A7008A
:100F8000309729F08091A0009091A1000995FF91E0
:100F9000EF91BF91AF919F918F917F916F915F91F1
:100FA0004F913F912F910F900FBE0F901F9018956A
:100FB0001F920F920FB60F9211242F933F934F93CE
:100FC0005F936F937F938F939F93AF93BF93EF93B1
:100FD000FF93E091A400F091A500309729F0809153
:100FE0009E0090919F000995FF91EF91BF91AF9165
:100FF0009F918F917F916F915F914F913F912F9131
:101000000F900FBE0F901F9018951F920F920FB662
:101010000F9211242F933F934F935F936F937F937E
:101020008F939F93AF93BF93EF93FF93E091A200B1
:10103000F091A300309729F080919C0090919D0041
:101040000995FF91EF91BF91AF919F918F917F9102
:101050006F915F914F913F912F910F900FBE0F9025
:101060001F901895833020F061157105B9F421C0E7
:10107000811109C07093A7006093A6005093A1004E
:101080004093A0000895813049F47093A5006093C7
:10109000A40050939F0040939E000DC0823059F4ED
:1010A0007093A3006093A20050939D0040939C0016
:1010B00002C081E0089580E0089578940895F8943E
:1010C000089580E0089513BE23B7216023BF23B79E
:1010D000226023BF26E022BF36E0009749F008B621
:1010E00000FEFDCF28B7216028BF32BF0197F5CFA2
:1010F00013BE80E0089513BE23B7216023BF20EF05
:1011000022BF8134910538F09C013695279536959C
:101110002795821B930B30EF009749F008B600FE2D
:10112000FDCF28B7216028BF32BF0197F5CF13BE8E
:1011300080E00895009751F09093AB008093AA004F
:101140007093A9006093A80080E0089581E008955D
:101150001F920F920FB60F9211242F933F934F932C
:101160005F936F937F938F939F93AF93BF93EF930F
:10117000FF93E091AA00F091AB00309729F08091A5
:10118000A8009091A9000995FF91EF91BF91AF91AF
:101190009F918F917F916F915F914F913F912F918F
:1011A0000F900FBE0F901F901895991B79E004C007
:1011B000991F961708F0961B881F7A95C9F7809596
:1011C0000895A1E21A2EAA1BBB1BFD010DC0AA1F88
:1011D000BB1FEE1FFF1FA217B307E407F50720F0A0
:1011E000A21BB30BE40BF50B661F771F881F991F1B
:1011F0001A9469F760957095809590959B01AC0164
:10120000BD01CF0108950E940E09A59F900DB49FC6
:10121000900DA49F800D911D11240895A29FB001EF
:10122000B39FC001A39F700D811D1124911DB29F1A
:0E123000700D811D1124911D0895F894FFCFBB
:10123E00000101020301010302034444444400017E
:10124E000203040506073738392F34353678313224
:10125E00332D43303D2B3F0006005B004F006600F0
:0C126E006D007D0007007F006F00000095
:00000001FF
