:100000000C942A000C9447000C9447000C94470071
:100010000C9447000C9447000C9447000C94470044
:100020000C9447000C9447000C9447000C94470034
:100030000C9447000C9447000C9447000C94470024
:100040000C9447000C9447000C9447000C94470014
:100050000C94470011241FBECFE5D8E0DEBFCDBF12
:1000600011E0A0E6B0E0E2E0F2E102C005900D92FE
:10007000A832B107D9F721E0A8E2B1E001C01D9292
:10008000AA32B207E1F70E9449000C94FF080C94D1
:1000900000000E940D030E942603FDCF683008F087
:1000A00070C0433008F06DC0823419F118F4813407
:1000B00039F067C08334A9F1843409F44AC061C0BF
:1000C00041110AC02AB381E090E001C0880F6A950F
:1000D000EAF7809582230BC0413009F054C02AB35F
:1000E00081E090E001C0880F6A95EAF7822B8ABB15
:1000F0004AC041110AC027B381E090E001C0880FD7
:100100006A95EAF7809582230AC04130E1F527B36A
:1001100081E090E001C0880F6A95EAF7822B87BBE7
:1001200032C041110AC024B381E090E001C0880FC1
:100130006A95EAF7809582230AC0413021F524B3FD
:1001400081E090E001C0880F6A95EAF7822B84BBBA
:100150001AC041110AC021B381E090E001C0880FAC
:100160006A95EAF7809582230AC0413061F421B391
:1001700081E090E001C0880F6A95EAF7822B81BB8D
:1001800002C081E0089580E00895683008F04BC017
:10019000423008F048C08234C1F018F4813431F0A4
:1001A00042C0833409F1843471F13DC02BB381E046
:1001B00090E001C0880F6A95EAF7411103C080956D
:1001C000822301C0822B8BBB2CC028B381E090E03E
:1001D00001C0880F6A95EAF7411103C08095822318
:1001E00001C0822B88BB1DC025B381E090E001C017
:1001F000880F6A95EAF7411103C08095822301C0F8
:10020000822B85BB0EC022B381E090E001C0880F35
:100210006A95EAF7411103C08095822301C0822BC1
:1002200082BB80E0089581E00895FA01683008F00B
:1002300052C0823491F1C0F4813409F04CC029B32A
:1002400081E090E0062E02C0880F991F0A94E2F721
:1002500030E082239323062E02C0959587950A9459
:10026000E2F7808389B32DC08334C9F0843499F5D3
:1002700020B381E090E0062E02C0880F991F0A94F7
:10028000E2F730E082239323062E02C095958795EE
:100290000A94E2F7808380B314C026B301C023B36D
:1002A00081E090E0062E02C0880F991F0A94E2F7C1
:1002B00030E08223932302C0959587956A95E2F7F3
:1002C00007C090E002C0959587956A95E2F7817026
:1002D000808380E0089581E00895CF92DF92EF92CD
:1002E000FF920F931F93CF93DF93CDB7DEB7619744
:1002F0000FB6F894DEBF0FBECDBF0E94DD0462E0F2
:1003000081E00E94CC048CE790E00E94B90461E097
:1003100082E00E94CC048FEF898BCE0101967C0194
:1003200010E06C010FEF89898F3F29F4CE014196CF
:100330000E94E905F8CF8D3361F086E890E00E94D5
:10034000B9048989F70181937F01098B1F5F1031FF
:1003500051F7F601E10FF11D108268E870E0C60167
:100360000E94F608892BE9F180912801833018F169
:100370000E94DD048FE890E00E94B90441E063E050
:1003800081E40E94C500FFEF29E688E1F15020409A
:100390008040E1F700C0000040E063E081E40E949B
:1003A000C5009FEFE9E6F8E19150E040F040E1F749
:1003B00000C00000E3CF0E94DD0486E990E00E94C7
:1003C000B9042FEF87EA91E6215080409040E1F791
:1003D00000C00000809128018F5F809328010E9457
:1003E0006D010E94DD0485EA90E00E94B904EFEF00
:1003F000F7EA21E6E150F0402040E1F700C00000BC
:1004000080E061960FB6F894DEBF0FBECDBFDF91DE
:10041000CF911F910F91FF90EF90DF90CF900895B3
:10042000CF93DF931F92CDB7DEB70E94DD0487EB39
:1004300090E00E94B90469E081E00E94CC048CEB5A
:1004400090E00E94B90461E082E00E94CC0482EC5A
:1004500090E00E94B9048FEF898389818F3F29F44E
:10046000CE0101960E94E905F8CF813311F441E0F5
:1004700003C0823331F440E063E083E40E94C500AE
:100480001EC0833319F4109229011CC08433D0F0AC
:100490000E94DD0489EC90E00E94B90463E082E0F0
:1004A0000E94CC0488ED90E00E94B9042FEF8FE009
:1004B00097E2215080409040E1F700C0000081E0C9
:1004C0008093290180E00F90DF91CF910895CF9321
:1004D000DF931F92CDB7DEB70E94DD0487EB90E07B
:1004E0000E94B9046AE081E00E94CC048CEB90E0A9
:1004F0000E94B90461E082E00E94CC0482EC90E0AA
:100500000E94B9048FEF898389818F3F29F4CE013E
:1005100001960E94E905F8CF813311F441E003C050
:10052000823331F440E062E081E40E94C5001EC0E5
:10053000833319F4109229011CC08433D0F00E9437
:10054000DD0483EE90E00E94B90463E082E00E9443
:10055000CC0488ED90E00E94B9042FEF8FE097E281
:10056000215080409040E1F700C0000083E080937C
:10057000290180E00F90DF91CF910895CF93DF9311
:1005800000D01F92CDB7DEB70E94DD0481EF90E06E
:100590000E94B904CE0101960E94F30669817A8116
:1005A00080E090E00E94F90488EF90E00E94B90496
:1005B00061E082E00E94CC048AEF90E00E94B904DE
:1005C0008FEF8B838B818F3F29F4CE0103960E949E
:1005D000E905F8CF8233D0F00E94DD0483EE90E08D
:1005E0000E94B90463E082E00E94CC0488ED90E0B0
:1005F0000E94B9042FEF8FE097E221508040904095
:10060000E1F700C0000082E08093290180E00F90B4
:100610000F900F90DF91CF9108950E943A040E94AD
:10062000670560E080E00E94C10641E063E081E48C
:100630000E944E0041E063E083E40E944E0041E0EE
:1006400062E081E40E944E0080E00895CF93DF9342
:100650001F92CDB7DEB765E081E00E94CC0481E057
:1006600091E00E94B90464E082E00E94CC0489E039
:1006700091E00E94B9042FEF83ED90E32150804078
:100680009040E1F700C000000E946D011FEF8091D3
:100690002901882339F0813041F1823059F18330CA
:1006A000B1F72DC00E94DD0481E191E00E94B90400
:1006B0006AE081E00E94CC0487E191E00E94B904E5
:1006C00061E082E00E94CC048EE191E00E94B904D6
:1006D0000E94E804198389818F3F29F4CE01019695
:1006E0000E94E905F8CF813319F40E941002CFCFA0
:1006F000823319F40E94BE02CACF833319F40E94D8
:100700006702C5CF843318F20E94DD0489EC90E0C3
:100710000E94B90463E082E00E94CC0488ED90E07E
:100720000E94B90410922901B2CFFF920F931F9338
:10073000CF93DF93F82E162FD42FC22F402F61E0D6
:1007400082E40E94C50041E063E082E40E94C500AB
:100750004F2D67E081E40E94C500412F66E081E4EF
:100760000E94C5004D2F65E081E40E94C5004C2F1A
:1007700064E081E40E94C50040E063E082E40E94FE
:10078000C5008FE39FE10197F1F700C00000DF9102
:10079000CF911F910F91FF900895CF93C82F462FAF
:1007A00061E082E40E94C50040E063E082E40E94D0
:1007B000C5004C2F441F4427441F67E081E40E947A
:1007C000C500C6FB442740F966E081E40E94C500ED
:1007D000C5FB442740F965E081E40E94C500C4FBE5
:1007E000442740F964E081E40E94C50041E063E0F1
:1007F00082E40E94C5008FE39FE10197F1F700C0FA
:10080000000040E063E082E40E94C500C3FB44278F
:1008100040F967E081E40E94C500C2FB442740F92B
:1008200066E081E40E94C500C1FB442740F965E011
:1008300081E40E94C5004C2F417064E081E40E9475
:10084000C50041E063E082E40E94C5008FE39FE1C0
:100850000197F1F700C0000040E063E082E40E94ED
:10086000C5008FE39FE10197F1F700C0000080E031
:10087000CF9108950F932FEF8FE891E021508040A2
:100880009040E1F700C0000041E061E082E40E9496
:100890004E0041E062E082E40E944E0041E063E0ED
:1008A00082E40E944E0041E067E081E40E944E0035
:1008B00041E066E081E40E944E0041E065E081E4B1
:1008C0000E944E0041E064E081E40E944E0000E09E
:1008D00020E041E060E080E00E94950320E041E0FC
:1008E00060E080E00E94950321E041E061E081E06A
:1008F0000E9495038FE39FE10197F1F700C000008C
:1009000020E040E060E080E00E94950321E041E0CB
:1009100061E081E00E9495038FE39FE10197F1F789
:1009200000C0000020E040E060E080E00E9495030D
:1009300021E040E060E080E00E9495038FE39FE1CA
:100940000197F1F700C0000020E040E060E080E0A7
:100950000E94950321E041E060E080E00E94950361
:100960008FE39FE10197F1F700C0000080E00F9155
:100970000895CF93DF93EC018881882351F041E003
:1009800061E082E40E94C50061E089910E94CD038C
:10099000F3CFDF91CF910895833068F4613158F43B
:1009A00090E4899F600D1124862F60E0815C0E9495
:1009B000CD0380E0089581E0089560E081E00E9429
:1009C000CD0380E0089561E00E94CD0380E00895AA
:1009D0000F9300E020E040E060E080E00E9495039B
:1009E00020E040E061E081E00E94950380E00F910B
:1009F00008954F925F926F927F928F929F92AF92E3
:100A0000BF92CF92DF92EF92FF924B015C0197FF72
:100A10000CC086E291E00E94B904B094A094909436
:100A20008094811C911CA11CB11C240135019AE009
:100A3000C92ED12CE12CF12C85E648165104610415
:100A4000710498F0C301B2012AE030E040E050E0C8
:100A50000E941E0729013A01AAE0B0E0A701960111
:100A60000E9440076B017C01E7CF8AE0482E512CA1
:100A7000612C712CC114D104E104F104D1F0C50141
:100A8000B401A70196010E941E07CA01B901A30182
:100A900092010E941E07862F61E0805D0E94CD03B7
:100AA000C701B601A30192010E941E0769017A01E4
:100AB000E1CF80E0FF90EF90DF90CF90BF90AF90BC
:100AC0009F908F907F906F905F904F900895AF921E
:100AD000BF92CF92DF92EF92FF920F931F93CF932B
:100AE000DF93CDB7DEB760970FB6F894DEBF0FBEC9
:100AF000CDBF8091600090916100A0916200B091A3
:100B000063008D879E87AF87B88B409164005091BA
:100B10006500609166007091670049875A876B870E
:100B20007C878D839E83AF83B88780916800909186
:100B30006900A0916A00B0916B0089839A83AB83AE
:100B4000BC838E010F5F1F4F7E0185E0E80EF11C14
:100B50005701F801C1908F01F701D1907F0141E069
:100B60006C2D8D2D0E944E0041E06C2D8D2D0E942C
:100B7000C5000A151B0569F78E01075F1F4F7E012F
:100B8000FDE0EF0EF11C5701F801C1908F01F70154
:100B9000D1907F0140E06C2D8D2D0E944E0041E0F0
:100BA0006C2D8D2D0E94C5000A151B0569F780E08C
:100BB00060960FB6F894DEBF0FBECDBFDF91CF9128
:100BC0001F910F91FF90EF90DF90CF90BF90AF906B
:100BD00008952F923F924F925F926F927F928F92E1
:100BE0009F92AF92BF92CF92DF92EF92FF920F93BC
:100BF0001F93CF93DF93CDB7DEB7A3970FB6F894CB
:100C0000DEBF0FBECDBF6C0180916000909161008E
:100C1000A0916200B09163008D8F9E8FAF8FB8A3BB
:100C2000409164005091650060916600709167008A
:100C3000498F5A8F6B8F7C8F8D8B9E8BAF8BB88F2C
:100C40008091680090916900A0916A00B0916B005A
:100C5000898B9A8BAB8BBC8B8FEF89A3F60180833A
:100C6000CE0141969BA38AA33E0195E1690E711CBA
:100C7000E12CF12CEAA1FBA12190FBA3EAA3F30153
:100C800031903F0140E0622D832D0E94C5004E014E
:100C9000F9E18F0E911C5E018DE1A80EB11C00E000
:100CA00010E0F40151904F01F50141905F01AE0158
:100CB0004F5D5F4F652D842D0E94150189A1811123
:100CC00030C0AE014F5D5F4F652D842D0E94150130
:100CD00089A1811126C080E1ECE6F0E0DE011196E9
:100CE00001900D928A95E1F7F801EE0FFF1FEE0FCC
:100CF000FF1F81E090E08C0F9D1FE80FF91FEE0DA4
:100D0000FF1D8081F601808389A1811108C0AE0199
:100D10004F5D5F4F652D842D0E941501F5CF11E0C9
:100D200007C00F5F1F4F0430110509F0BACF10E064
:100D300041E0622D832D0E94C500111108C0FFEF14
:100D4000EF1AFF0A84E0E816F10409F093CF80E07F
:100D5000A3960FB6F894DEBF0FBECDBFDF91CF9143
:100D60001F910F91FF90EF90DF90CF90BF90AF90C9
:100D70009F908F907F906F905F904F903F902F90BB
:100D80000895CF938830A0F4C62F682F40E081E407
:100D90000E944E00C11101C017B83D9A87B187B9B2
:100DA00087B187B9379A86B1866086B980E001C07D
:100DB00081E0CF9108950097A1F0369A349BFECF41
:100DC00024B145B1229526952695237030E054E054
:100DD000459F200D311D1124FC013183208380E0CB
:100DE000089581E008950F931F93CF93DF9300D070
:100DF000CDB7DEB78C01CE0101960E94DB0669817A
:100E00007A8180E090E00E94FB072AE538E740EA1B
:100E10005BE30E9489082AE037ED43E25CE30E942D
:100E20005A070E94CC07F8017183608380E00F901D
:100E30000F90DF91CF911F910F910895A1E21A2E8B
:100E4000AA1BBB1BFD010DC0AA1FBB1FEE1FFF1F6E
:100E5000A217B307E407F50720F0A21BB30BE40BBE
:100E6000F50B661F771F881F991F1A9469F7609505
:100E70007095809590959B01AC01BD01CF010895BF
:100E80000E944B07A59F900DB49F900DA49F800DCD
:100E9000911D11240895A29FB001B39FC001A39F8B
:100EA000700D811D1124911DB29F700D811D1124A3
:100EB000911D08950E946E070C944F080E944808E7
:100EC00058F00E94410840F029F45F3F29F00C944B
:100ED000380851110C9483080C943E080E94600855
:100EE00068F39923B1F3552391F3951B550BBB2759
:100EF000AA2762177307840738F09F5F5F4F220F9E
:100F0000331F441FAA1FA9F335D00E2E3AF0E0E894
:100F100032D091505040E695001CCAF72BD0FE2FDE
:100F200029D0660F771F881FBB1F26173707480772
:100F3000AB07B0E809F0BB0B802DBF01FF2793582A
:100F40005F4F3AF09E3F510578F00C9438080C94AE
:100F500083085F3FE4F3983ED4F3869577956795D1
:100F6000B795F7959F5FC9F7880F911D969587955F
:100F700097F90895E1E0660F771F881FBB1F62177E
:100F800073078407BA0720F0621B730B840BBA0B3C
:100F9000EE1F88F7E09508950E94680888F09F5733
:100FA00098F0B92F9927B751B0F0E1F0660F771F8D
:100FB000881F991F1AF0BA95C9F714C0B13091F083
:100FC0000E948208B1E008950C948208672F782F60
:100FD0008827B85F39F0B93FCCF386957795679548
:100FE000B395D9F73EF490958095709561957F4FB4
:100FF0008F4F9F4F0895E89409C097FB3EF490955A
:101000008095709561957F4F8F4F9F4F9923A9F0E1
:10101000F92F96E9BB279395F69587957795679570
:10102000B795F111F8CFFAF4BB0F11F460FF1BC0B4
:101030006F5F7F4F8F4F9F4F16C0882311F096E947
:1010400011C0772321F09EE8872F762F05C06623F5
:1010500071F096E8862F70E060E02AF09A95660FAE
:10106000771F881FDAF7880F9695879597F9089567
:1010700097F99F6780E870E060E008959FEF80EC4B
:10108000089500240A9416161706180609060895EE
:1010900000240A9412161306140605060895092E54
:1010A0000394000C11F4882352F0BB0F40F4BF2BC3
:1010B00011F460FF04C06F5F7F4F8F4F9F4F089503
:1010C00057FD9058440F551F59F05F3F71F04795F9
:1010D000880F97FB991F61F09F3F79F087950895DE
:1010E000121613061406551FF2CF4695F1DF08C0FD
:1010F000161617061806991FF1CF8695710561051A
:1011000008940895E894BB2766277727CB0197F9C1
:1011100008950E949C080C944F080E94410838F0E2
:101120000E94480820F0952311F00C9438080C9484
:101130003E0811240C9483080E94600870F3959F68
:10114000C1F3950F50E0551F629FF001729FBB27BE
:10115000F00DB11D639FAA27F00DB11DAA1F649F5A
:101160006627B00DA11D661F829F2227B00DA11D0D
:10117000621F739FB00DA11D621F839FA00D611D93
:10118000221F749F3327A00D611D231F849F600DB4
:10119000211D822F762F6A2F11249F5750409AF0DD
:1011A000F1F088234AF0EE0FFF1FBB1F661F771F69
:1011B000881F91505040A9F79E3F510580F00C9434
:1011C00038080C9483085F3FE4F3983ED4F3869587
:1011D00077956795B795F795E7959F5FC1F7FE2BD4
:1011E000880F911D9695879597F90895FB01DC016D
:1011F0008D91019080190110D9F3990B0895F894FD
:02120000FFCF1E
:101202004444444400010203040506073738392FD9
:10121200343536783132332D43303D2B5061737380
:10122200776F72643A002A003132332F43780037E5
:101232006172616D790057524F4E472050415353AE
:10124200574F524400436F7272656374207061732A
:1012520073776F72642100312D4F4E00322D4F464D
:101262004600332D4261636B004572726F722069D2
:101272006E76616C696420006B657920696E7075A9
:101282007421004572726F7220696E76616C6964B6
:101292000054656D703D20004300312D4261636B47
:1012A2000057656C636F6D65004C6F6164696E67B2
:1012B20000312D4C454400322D54656D7000332DA4
:0812C2004D6F746F72002D00E6
:00000001FF
