:100000000C942A000C9447000C9447000C94470071
:100010000C9447000C9447000C9447000C94470044
:100020000C9447000C9447000C9447000C94470034
:100030000C9447000C9447000C9447000C94470024
:100040000C9447070C9447000C9447000C9447000D
:100050000C94470011241FBECFE5D8E0DEBFCDBF12
:1000600011E0A0E6B0E0E6E2F3E102C005900D92F7
:10007000A832B107D9F721E0A8E2B1E001C01D9292
:10008000AD32B207E1F70E9449000C9491090C943B
:1000900000000E9425030E944403FDCF683008F051
:1000A00070C0433008F06DC0823419F118F4813407
:1000B00039F067C08334A9F1843409F44AC061C0BF
:1000C00041110AC02AB381E090E001C0880F6A950F
:1000D000EAF7809582230BC0413009F054C02AB35F
:1000E00081E090E001C0880F6A95EAF7822B8ABB15
:1000F0004AC041110AC027B381E090E001C0880FD7
:100100006A95EAF7809582230AC04130E1F527B36A
:1001100081E090E001C0880F6A95EAF7822B87BBE7
:1001200032C041110AC024B381E090E001C0880FC1
:100130006A95EAF7809582230AC0413021F524B3FD
:1001400081E090E001C0880F6A95EAF7822B84BBBA
:100150001AC041110AC021B381E090E001C0880FAC
:100160006A95EAF7809582230AC0413061F421B391
:1001700081E090E001C0880F6A95EAF7822B81BB8D
:1001800002C081E0089580E00895683008F04BC017
:10019000423008F048C08234C1F018F4813431F0A4
:1001A00042C0833409F1843471F13DC02BB381E046
:1001B00090E001C0880F6A95EAF7411103C080956D
:1001C000822301C0822B8BBB2CC028B381E090E03E
:1001D00001C0880F6A95EAF7411103C08095822318
:1001E00001C0822B88BB1DC025B381E090E001C017
:1001F000880F6A95EAF7411103C08095822301C0F8
:10020000822B85BB0EC022B381E090E001C0880F35
:100210006A95EAF7411103C08095822301C0822BC1
:1002200082BB80E0089581E00895FA01683008F00B
:1002300052C0823491F1C0F4813409F04CC029B32A
:1002400081E090E0062E02C0880F991F0A94E2F721
:1002500030E082239323062E02C0959587950A9459
:10026000E2F7808389B32DC08334C9F0843499F5D3
:1002700020B381E090E0062E02C0880F991F0A94F7
:10028000E2F730E082239323062E02C095958795EE
:100290000A94E2F7808380B314C026B301C023B36D
:1002A00081E090E0062E02C0880F991F0A94E2F7C1
:1002B00030E08223932302C0959587956A95E2F7F3
:1002C00007C090E002C0959587956A95E2F7817026
:1002D000808380E0089581E00895CF92DF92EF92CD
:1002E000FF920F931F93CF93DF93CDB7DEB7619744
:1002F0000FB6F894DEBF0FBECDBF0E94FD0462E0D2
:1003000081E00E94EC048CE790E00E94D90461E057
:1003100082E00E94EC040E9487058FEF898BCE015A
:1003200001967C0110E06C010FEF89898F3F29F461
:10033000CE0141960E941A06F8CF8D3361F086E80F
:1003400090E00E94D9048989F70181937F01098B8C
:100350001F5F103151F7F601E10FF11D108268E8BF
:1003600070E0C6010E948809892B09F441C0809180
:100370002801833028F10E94FD048FE890E00E945C
:10038000D9040E94080541E063E081E40E94C500B1
:10039000FFEF29E688E1F15020408040E1F700C0FE
:1003A000000040E063E081E40E94C5009FEFE9E6C1
:1003B000F8E19150E040F040E1F700C00000E3CFE9
:1003C0000E94FD0486E990E00E94D9040E9408057D
:1003D0002FEF87EA91E6215080409040E1F700C07E
:1003E0000000809128018F5F809328010E946D0199
:1003F0000E94FD0485EA90E00E94D904EFEFF7EA3D
:1004000021E6E150F0402040E1F700C0000080E02C
:1004100061960FB6F894DEBF0FBECDBFDF91CF91CE
:100420001F910F91FF90EF90DF90CF900895CF93A1
:10043000DF931F92CDB7DEB70E94FD0487EB90E0FB
:100440000E94D90469E081E00E94EC048CEB90E00A
:100450000E94D90461E082E00E94EC0482EC90E00A
:100460000E94D9048FEF898389818F3F29F4CE01BF
:1004700001960E941A06F8CF813311F441E003C0BF
:10048000823331F440E063E083E40E94C5001EC083
:10049000833319F4109229011CC08433D0F00E94D8
:1004A000FD0489EC90E00E94D90463E082E00E94A0
:1004B000EC0488ED90E00E94D9042FEF8FE097E2E2
:1004C000215080409040E1F700C0000081E080931F
:1004D000290180E00F90DF91CF910895CF93DF93B2
:1004E0001F92CDB7DEB70E94FD0487EB90E00E941B
:1004F000D9046AE081E00E94EC048CEB90E00E9459
:10050000D90461E082E00E94EC0482EC90E00E9459
:10051000D9048FEF898389818F3F29F4CE01019619
:100520000E941A06F8CF813311F441E003C08233F0
:1005300031F440E062E081E40E94C5001EC08333D4
:1005400019F4109229011CC08433D0F00E94FD04DC
:1005500083EE90E00E94D90463E082E00E94EC0404
:1005600088ED90E00E94D9042FEF8FE097E22150B0
:1005700080409040E1F700C0000083E080932901B3
:1005800080E00F90DF91CF910895CF93DF9300D05B
:100590001F92CDB7DEB70E94FD0481EF90E00E946C
:1005A000D90469E081E00E94EC0488EF90E00E94A9
:1005B000D90461E082E00E94EC048AEF90E00E949E
:1005C000D9048FEF8B838B818F3FE1F4CE010396AB
:1005D0000E941A0667E081E00E94EC04CE010196B9
:1005E0000E94810769817A8180E090E00E9419056C
:1005F0002FEF85EA9EE0215080409040E1F700C057
:100600000000E1CF8233D0F00E94FD0483EE90E041
:100610000E94D90463E082E00E94EC0488ED90E03F
:100620000E94D9042FEF8FE097E221508040904044
:10063000E1F700C0000082E08093290180E00F9084
:100640000F900F90DF91CF9108950E945A040E945D
:1006500098050E94AC0780E00E94F20680E00E94AC
:1006600025070E94410741E063E081E40E944E00BB
:1006700041E063E083E40E944E0041E062E081E4F7
:100680000E944E0080E00895CF93DF931F92CDB774
:10069000DEB765E081E00E94EC0481E091E00E9419
:1006A000D90464E082E00E94EC0489E091E00E94B9
:1006B000D9040E9408052FEF83ED90E3215080407C
:1006C0009040E1F700C000000E946D011FEF809193
:1006D0002901882339F0813041F1823059F183308A
:1006E000B1F72DC00E94FD0481E191E00E94D90480
:1006F0006AE081E00E94EC0487E191E00E94D90465
:1007000061E082E00E94EC048EE191E00E94D90455
:100710000E940805198389818F3F29F4CE01019633
:100720000E941A06F8CF813319F40E941702CFCF26
:10073000823319F40E94C502CACF833319F40E9490
:100740006E02C5CF843318F20E94FD0489EC90E05C
:100750000E94D90463E082E00E94EC0488ED90E0FE
:100760000E94D90410922901B2CFFF920F931F93D8
:10077000CF93DF93F82E162FD42FC22F402F61E096
:1007800082E40E94C50041E063E082E40E94C5006B
:100790004F2D67E081E40E94C500412F66E081E4AF
:1007A0000E94C5004D2F65E081E40E94C5004C2FDA
:1007B00064E081E40E94C50040E063E082E40E94BE
:1007C000C5008FE39FE10197F1F700C00000DF91C2
:1007D000CF911F910F91FF900895CF93C82F462F6F
:1007E00061E082E40E94C50040E063E082E40E9490
:1007F000C5004C2F441F4427441F67E081E40E943A
:10080000C500C6FB442740F966E081E40E94C500AC
:10081000C5FB442740F965E081E40E94C500C4FBA4
:10082000442740F964E081E40E94C50041E063E0B0
:1008300082E40E94C5008FE39FE10197F1F700C0B9
:10084000000040E063E082E40E94C500C3FB44274F
:1008500040F967E081E40E94C500C2FB442740F9EB
:1008600066E081E40E94C500C1FB442740F965E0D1
:1008700081E40E94C5004C2F417064E081E40E9435
:10088000C50041E063E082E40E94C5008FE39FE180
:100890000197F1F700C0000040E063E082E40E94AD
:1008A000C5008FE39FE10197F1F700C0000080E0F1
:1008B000CF9108950F932FEF8FE891E02150804062
:1008C0009040E1F700C0000041E061E082E40E9456
:1008D0004E0041E062E082E40E944E0041E063E0AD
:1008E00082E40E944E0041E067E081E40E944E00F5
:1008F00041E066E081E40E944E0041E065E081E471
:100900000E944E0041E064E081E40E944E0000E05D
:1009100020E041E060E080E00E94B50320E041E09B
:1009200060E080E00E94B50321E041E061E081E009
:100930000E94B5038FE39FE10197F1F700C000002B
:1009400020E040E060E080E00E94B50321E041E06B
:1009500061E081E00E94B5038FE39FE10197F1F729
:1009600000C0000020E040E060E080E00E94B503AD
:1009700021E040E060E080E00E94B5038FE39FE16A
:100980000197F1F700C0000020E040E060E080E067
:100990000E94B50321E041E060E080E00E94B503E1
:1009A0008FE39FE10197F1F700C0000080E00F9115
:1009B0000895CF93DF93EC018881882351F041E0C3
:1009C00061E082E40E94C50061E089910E94ED032C
:1009D000F3CFDF91CF910895833068F4613158F4FB
:1009E00090E4899F600D1124862F60E0815C0E9455
:1009F000ED0380E0089581E0089560E081E00E94C9
:100A0000ED0380E0089561E00E94ED0380E0089529
:100A10000F9300E020E040E060E080E00E94B5033A
:100A200020E040E061E081E00E94B50380E00F91AA
:100A300008954F925F926F927F928F929F92AF92A2
:100A4000BF92CF92DF92EF92FF924B015C0197FF32
:100A50000CC086E291E00E94D904B094A0949094D6
:100A60008094811C911CA11CB11C240135019AE0C9
:100A7000C92ED12CE12CF12C85E6481651046104D5
:100A8000710498F0C301B2012AE030E040E050E088
:100A90000E94B00729013A01AAE0B0E0A70196013F
:100AA0000E94D2076B017C01E7CF8AE0482E512CCF
:100AB000612C712CC114D104E104F104D1F0C50101
:100AC000B401A70196010E94B007CA01B901A301B0
:100AD00092010E94B007862F61E0805D0E94ED03C5
:100AE000C701B601A30192010E94B00769017A0112
:100AF000E1CF80E0FF90EF90DF90CF90BF90AF907C
:100B00009F908F907F906F905F904F9008950F937C
:100B100000E020E040E060E080E00E94B50321E0DA
:100B200041E061E081E00E94B50380E00F9108950B
:100B3000AF92BF92CF92DF92EF92FF920F931F93EB
:100B4000CF93DF93CDB7DEB760970FB6F894DEBFD3
:100B50000FBECDBF8091600090916100A0916200B6
:100B6000B09163008D879E87AF87B88B40916400FA
:100B700050916500609166007091670049875A87BF
:100B80006B877C878D839E83AF83B8878091680055
:100B900090916900A0916A00B0916B0089839A835B
:100BA000AB83BC838E010F5F1F4F7E0185E0E80E93
:100BB000F11C5701F801C1908F01F701D1907F011D
:100BC00041E06C2D8D2D0E944E0041E06C2D8D2D4D
:100BD0000E94C5000A151B0569F78E01075F1F4FAC
:100BE0007E01FDE0EF0EF11C5701F801C1908F016D
:100BF000F701D1907F0140E06C2D8D2D0E944E00B9
:100C000041E06C2D8D2D0E94C5000A151B0569F76A
:100C100080E060960FB6F894DEBF0FBECDBFDF91C7
:100C2000CF911F910F91FF90EF90DF90CF90BF90E9
:100C3000AF9008952F923F924F925F926F927F9262
:100C40008F929F92AF92BF92CF92DF92EF92FF92DC
:100C50000F931F93CF93DF93CDB7DEB7A3970FB654
:100C6000F894DEBF0FBECDBF6C0180916000909103
:100C70006100A0916200B09163008D8F9E8FAF8F55
:100C8000B8A3409164005091650060916600709136
:100C90006700498F5A8F6B8F7C8F8D8B9E8BAF8BAC
:100CA000B88F8091680090916900A0916A00B0911E
:100CB0006B00898B9A8BAB8BBC8B8FEF89A3F60172
:100CC0008083CE0141969BA38AA33E0195E1690EE4
:100CD000711CE12CF12CEAA1FBA12190FBA3EAA35A
:100CE000F30131903F0140E0622D832D0E94C50049
:100CF0004E01F9E18F0E911C5E018DE1A80EB11C31
:100D000000E010E0F40151904F01F50141905F01C6
:100D1000AE014F5D5F4F652D842D0E94150189A1A5
:100D2000811130C0AE014F5D5F4F652D842D0E9453
:100D3000150189A1811126C080E1ECE6F0E0DE0119
:100D4000119601900D928A95E1F7F801EE0FFF1FC1
:100D5000EE0FFF1F81E090E08C0F9D1FE80FF91F41
:100D6000EE0DFF1D8081F601808389A1811108C0ED
:100D7000AE014F5D5F4F652D842D0E941501F5CFAB
:100D800011E007C00F5F1F4F0430110509F0BACF03
:100D900010E041E0622D832D0E94C500111108C0B2
:100DA000FFEFEF1AFF0A84E0E816F10409F093CF91
:100DB00080E0A3960FB6F894DEBF0FBECDBFDF91E3
:100DC000CF911F910F91FF90EF90DF90CF90BF9048
:100DD000AF909F908F907F906F905F904F903F90DB
:100DE0002F900895CF93883090F4C82F40E0682F5B
:100DF00081E40E944E00C7B93D9A87B187B987B197
:100E000087B9379A86B1866086B980E001C081E0F3
:100E1000CF9108950097B9F0359B11C024B145B129
:100E2000229526952695237030E054E0459F200DAD
:100E3000311D1124FC013183208380E00895369A0E
:100E4000349BFECFEBCF81E00895359A20B730E296
:100E5000839FC0011124822B80BF369A80912A0182
:100E6000811105C081E080932A01349BFECF80E090
:100E70000895892B21F410922C0110922B0180E00F
:100E80000895339A80E00895339880E008951F9282
:100E90000F920FB60F9211242F933F934F935F93AE
:100EA0006F937F938F939F93AF93BF93EF93FF9332
:100EB000E0912B01F0912C01309719F080E090E047
:100EC0000995FF91EF91BF91AF919F918F917F9184
:100ED0006F915F914F913F912F910F900FBE0F90A7
:100EE0001F901895379A80E00895379880E008950C
:100EF000883028F497B1892B87B980E0089581E084
:100F000008950F931F93CF93DF9300D0CDB7DEB733
:100F10008C01CE0101960E940A0769817A8180E0E6
:100F200090E00E948D082AE538E740EA5BE30E94E2
:100F30001B092AE037ED43E25CE30E94EC070E94C4
:100F40005E08F8017183608380E00F900F90DF915D
:100F5000CF911F910F91089578940895F894089572
:100F6000A1E21A2EAA1BBB1BFD010DC0AA1FBB1FAD
:100F7000EE1FFF1FA217B307E407F50720F0A21B1F
:100F8000B30BE40BF50B661F771F881F991F1A948C
:100F900069F760957095809590959B01AC01BD01B6
:100FA000CF0108950E94DD07A59F900DB49F900D7D
:100FB000A49F800D911D11240895A29FB001B39F9D
:100FC000C001A39F700D811D1124911DB29F700D52
:100FD000811D1124911D08950E9400080C94E108C0
:100FE0000E94DA0858F00E94D30840F029F45F3FCD
:100FF00029F00C94CA0851110C9415090C94D008CE
:101000000E94F20868F39923B1F3552391F3951BDD
:10101000550BBB27AA2762177307840738F09F5F19
:101020005F4F220F331F441FAA1FA9F335D00E2E86
:101030003AF0E0E832D091505040E695001CCAF7F3
:101040002BD0FE2F29D0660F771F881FBB1F2617B6
:1010500037074807AB07B0E809F0BB0B802DBF018D
:10106000FF2793585F4F3AF09E3F510578F00C945C
:10107000CA080C9415095F3FE4F3983ED4F38695B3
:1010800077956795B795F7959F5FC9F7880F911D7D
:101090009695879597F90895E1E0660F771F881F69
:1010A000BB1F621773078407BA0720F0621B730B1C
:1010B000840BBA0BEE1F88F7E09508950E94FA089A
:1010C00088F09F5798F0B92F9927B751B0F0E1F009
:1010D000660F771F881F991F1AF0BA95C9F714C0B9
:1010E000B13091F00E941409B1E008950C941409F4
:1010F000672F782F8827B85F39F0B93FCCF38695F2
:1011000077956795B395D9F73EF49095809570954E
:1011100061957F4F8F4F9F4F0895E89409C097FBCB
:101120003EF490958095709561957F4F8F4F9F4FBE
:101130009923A9F0F92F96E9BB279395F695879502
:1011400077956795B795F111F8CFFAF4BB0F11F4C5
:1011500060FF1BC06F5F7F4F8F4F9F4F16C088236C
:1011600011F096E911C0772321F09EE8872F762FA2
:1011700005C0662371F096E8862F70E060E02AF0E3
:101180009A95660F771F881FDAF7880F96958795CF
:1011900097F9089597F99F6780E870E060E00895F7
:1011A0009FEF80EC089500240A941616170618067F
:1011B0000906089500240A9412161306140605065B
:1011C0000895092E0394000C11F4882352F0BB0FEC
:1011D00040F4BF2B11F460FF04C06F5F7F4F8F4F4F
:1011E0009F4F089557FD9058440F551F59F05F3F8A
:1011F00071F04795880F97FB991F61F09F3F79F039
:1012000087950895121613061406551FF2CF4695BA
:10121000F1DF08C0161617061806991FF1CF86953C
:101220007105610508940895E894BB276627772720
:10123000CB0197F908950E942E090C94E1080E94B1
:10124000D30838F00E94DA0820F0952311F00C94AE
:10125000CA080C94D00811240C9415090E94F208B5
:1012600070F3959FC1F3950F50E0551F629FF001F9
:10127000729FBB27F00DB11D639FAA27F00DB11D12
:10128000AA1F649F6627B00DA11D661F829F22279B
:10129000B00DA11D621F739FB00DA11D621F839F22
:1012A000A00D611D221F749F3327A00D611D231FF8
:1012B000849F600D211D822F762F6A2F11249F5746
:1012C00050409AF0F1F088234AF0EE0FFF1FBB1F49
:1012D000661F771F881F91505040A9F79E3F510508
:1012E00080F00C94CA080C9415095F3FE4F3983E13
:1012F000D4F3869577956795B795F795E7959F5FB2
:10130000C1F7FE2B880F911D9695879597F9089543
:10131000FB01DC018D91019080190110D9F3990B2B
:061320000895F894FFCFD0
:101326004444444400010203040506073738392FB4
:10133600343536783132332D43303D2B506173735B
:10134600776F72643A002A003132332F43780037C0
:101356006172616D790057524F4E47205041535389
:10136600574F524400436F72726563742070617305
:1013760073776F72642100312D4F4E00322D4F4628
:101386004600332D4261636B004572726F722069AD
:101396006E76616C696420006B657920696E707584
:1013A6007421004572726F7220696E76616C696491
:1013B6000054656D703D20004300312D4261636B22
:1013C6000057656C636F6D65004C6F6164696E678D
:1013D60000312D4C454400322D54656D7000332D7F
:0813E6004D6F746F72002D00C1
:00000001FF
