:100000000C942A000C9447000C9447000C94470071
:100010000C9447000C9447000C9447000C94470044
:100020000C9447000C9447000C9447000C94470034
:100030000C9447000C9447000C9447000C94470024
:100040000C9444020C9447000C9447000C94470015
:100050000C94470011241FBECFE5D8E0DEBFCDBF12
:1000600010E0A0E6B0E0E6E6F6E002C005900D92F2
:10007000A236B107D9F720E0A2E6B0E001C01D9298
:10008000A636B207E1F70E944D000C9431030C94A0
:10009000000081E080936200089541E064E084E420
:1000A0000E949A0041E065E084E40E949A0040E0EA
:1000B00060E081E40E949A0040E060E081E40E94F8
:1000C000110141E060E083E40E949A000E947E02F8
:1000D0000E94E80280E00E94EF0162E382E30E9456
:1000E0008C02CAE0D0E080E690E00E940702809196
:1000F000600090916100823F23E0920728F4BE01E6
:100100000E94EC02862F02C084E670E080936000BB
:1001100070936100682F0E948C021092620060E070
:1001200083E40E94B9018FED9EE20197F1F700C0D0
:100130000000D9CF683008F070C0433008F06DC0BF
:10014000823419F118F4813439F067C08334A9F18D
:10015000843409F44AC061C041110AC02AB381E065
:1001600090E001C0880F6A95EAF7809582230BC062
:10017000413009F054C02AB381E090E001C0880FFB
:100180006A95EAF7822B8ABB4AC041110AC027B39D
:1001900081E090E001C0880F6A95EAF7809582239C
:1001A0000AC04130E1F527B381E090E001C0880F3B
:1001B0006A95EAF7822B87BB32C041110AC024B38B
:1001C00081E090E001C0880F6A95EAF7809582236C
:1001D0000AC0413021F524B381E090E001C0880FCE
:1001E0006A95EAF7822B84BB1AC041110AC021B379
:1001F00081E090E001C0880F6A95EAF7809582233C
:100200000AC0413061F421B381E090E001C0880F61
:100210006A95EAF7822B81BB02C081E0089580E0F5
:100220000895683008F04BC0423008F048C082346E
:10023000C1F018F4813431F042C0833409F18434C0
:1002400071F13DC02BB381E090E001C0880F6A9549
:10025000EAF7411103C08095822301C0822B8BBB3A
:100260002CC028B381E090E001C0880F6A95EAF7BE
:10027000411103C08095822301C0822B88BB1DC021
:1002800025B381E090E001C0880F6A95EAF741113B
:1002900003C08095822301C0822B85BB0EC022B390
:1002A00081E090E001C0880F6A95EAF7411103C030
:1002B0008095822301C0822B82BB80E0089581E07B
:1002C0000895FA01683008F052C0823491F1C0F408
:1002D000813409F04CC029B381E090E0062E02C0C1
:1002E000880F991F0A94E2F730E082239323062EA9
:1002F00002C0959587950A94E2F7808389B32DC053
:100300008334C9F0843499F520B381E090E0062E5F
:1003100002C0880F991F0A94E2F730E082239323EA
:10032000062E02C0959587950A94E2F7808380B3E4
:1003300014C026B301C023B381E090E0062E02C0B2
:10034000880F991F0A94E2F730E08223932302C0BA
:10035000959587956A95E2F707C090E002C095955C
:1003600087956A95E2F78170808380E0089581E047
:100370000895683090F58234D9F060F4813469F5DD
:100380002BB381E090E001C0880F6A95EAF78227DD
:100390008BBB21C08334B1F08434F9F422B381E003
:1003A00090E001C0880F6A95EAF7822782BB13C0EC
:1003B00028B381E090E001C0880F6A95EAF78227B0
:1003C00088BB09C025B381E090E001C0880F6A9521
:1003D000EAF7822785BB80E0089581E00895CF93F6
:1003E000883090F4C82F40E0682F81E40E949A0082
:1003F000C7B93D9A87B187B987B187B9379A86B1AE
:10040000866086B980E001C081E0CF9108950097B1
:10041000B9F0359B11C024B145B12295269526959A
:10042000237030E054E0459F200D311D1124FC0164
:100430003183208380E00895369A349BFECFEBCF42
:1004400081E00895359A20B730E2839FC0011124DE
:10045000822B80BF369A80916300811105C081E0B4
:1004600080936300349BFECF80E00895892B21F4B4
:10047000109265001092640080E00895339A80E045
:100480000895339880E008951F920F920FB60F924F
:1004900011242F933F934F935F936F937F938F9389
:1004A0009F93AF93BF93EF93FF93E0916400F0911C
:1004B0006500309719F080E090E00995FF91EF9189
:1004C000BF91AF919F918F917F916F915F914F916C
:1004D0003F912F910F900FBE0F901F901895379A54
:1004E00080E00895379880E00895883028F497B127
:1004F000892B87B980E0089581E008958FB58160E8
:100500008FBD8FB582608FBD8FB588608FBD8FB571
:100510008F7E8FBD80E008958F929F92AF92BF92A1
:10052000CF92DF92EF92FF92CF93C62F853660F580
:10053000653650F5282F30E0AFEFB3E00E9422037C
:1005400024E6C22ED12CE12CF12CA70196010E94A9
:10055000000349015A012C2F30E0AFEFB3E00E94B5
:100560002203A70196010E9400038FB580628FBD10
:100570008FB580688FBD9BBC8ABC39BD28BD8EB548
:1005800084608EBD80E001C081E0CF91FF90EF904C
:10059000DF90CF90BF90AF909F908F90089584355B
:1005A00051F48EB58E7F8EBD8EB58D7F8EBD8EB58E
:1005B0008B7F8EBD04C0833221F41BBC1ABC80E04B
:1005C0000895863619F419BC18BCF9CF81E0089556
:1005D00078940895F8940895AA1BBB1B51E107C0B5
:1005E000AA1FBB1FA617B70710F0A61BB70B881FC3
:1005F000991F5A95A9F780959095BC01CD01089552
:10060000A1E21A2EAA1BBB1BFD010DC0AA1FBB1F16
:10061000EE1FFF1FA217B307E407F50720F0A21B88
:10062000B30BE40BF50B661F771F881F991F1A94F5
:1006300069F760957095809590959B01AC01BD011F
:10064000CF010895A29FB001B39FC001A39F700D79
:10065000811D1124911DB29F700D811D1124911DCA
:060660000895F894FFCF9D
:02066600320060
:00000001FF
