:100000000C942A000C9447000C9447000C94470071
:100010000C9447000C9447000C9447000C94470044
:100020000C9447000C9447000C9447000C94470034
:100030000C9447000C9447000C9447000C94470024
:100040000C94C6030C9447000C9447000C94470092
:100050000C94470011241FBECFE5D8E0DEBFCDBF12
:1000600010E0A0E6B0E0ECE7F8E002C005900D92E9
:10007000A636B107D9F720E0A6E6B0E001C01D9290
:10008000A936B207E1F70E9449000C943C040C9495
:100090000000CF93DF9300D0CDB7DEB70E943302CC
:1000A00080E00E94710380E690E00E94B202CE01DF
:1000B00001960E94890365E081E00E94C502698182
:1000C0007A8180E090E00E94F2022FEF84E39CE0CE
:1000D000215080409040E1F700C00000E8CF683038
:1000E00008F070C0433008F06DC0823419F118F484
:1000F000813439F067C08334A9F1843409F44AC0EB
:1001000061C041110AC02AB381E090E001C0880FAC
:100110006A95EAF7809582230BC0413009F054C0FC
:100120002AB381E090E001C0880F6A95EAF7822B3C
:100130008ABB4AC041110AC027B381E090E001C0E8
:10014000880F6A95EAF7809582230AC04130E1F56D
:1001500027B381E090E001C0880F6A95EAF7822B0F
:1001600087BB32C041110AC024B381E090E001C0D6
:10017000880F6A95EAF7809582230AC0413021F5FD
:1001800024B381E090E001C0880F6A95EAF7822BE2
:1001900084BB1AC041110AC021B381E090E001C0C4
:1001A000880F6A95EAF7809582230AC0413061F48E
:1001B00021B381E090E001C0880F6A95EAF7822BB5
:1001C00081BB02C081E0089580E00895683008F0A6
:1001D0004BC0423008F048C08234C1F018F481347A
:1001E00031F042C0833409F1843471F13DC02BB346
:1001F00081E090E001C0880F6A95EAF7411103C0E1
:100200008095822301C0822B8BBB2CC028B381E058
:1002100090E001C0880F6A95EAF7411103C080950C
:10022000822301C0822B88BB1DC025B381E090E0F2
:1002300001C0880F6A95EAF7411103C080958223B7
:1002400001C0822B85BB0EC022B381E090E001C0CB
:10025000880F6A95EAF7411103C08095822301C097
:10026000822B82BB80E0089581E00895FA01683016
:1002700008F052C0823491F1C0F4813409F04CC0CE
:1002800029B381E090E0062E02C0880F991F0A94DE
:10029000E2F730E082239323062E02C095958795DE
:1002A0000A94E2F7808389B32DC08334C9F0843483
:1002B00099F520B381E090E0062E02C0880F991FC7
:1002C0000A94E2F730E082239323062E02C095952C
:1002D00087950A94E2F7808380B314C026B301C0E7
:1002E00023B381E090E0062E02C0880F991F0A9484
:1002F000E2F730E08223932302C0959587956A95B3
:10030000E2F707C090E002C0959587956A95E2F7FD
:100310008170808380E0089581E00895FF920F93BB
:100320001F93CF93DF93F82E162FD42FC22F402F79
:1003300061E082E40E94E60041E063E082E40E9422
:10034000E6004F2D67E081E40E94E600412F66E061
:1003500081E40E94E6004D2F65E081E40E94E60002
:100360004C2F64E081E40E94E60040E063E082E418
:100370000E94E6008FE39FE10197F1F700C00000C3
:10038000DF91CF911F910F91FF900895CF93C82FC8
:10039000462F61E082E40E94E60040E063E082E4F0
:1003A0000E94E6004C2F441F4427441F67E081E46D
:1003B0000E94E600C6FB442740F966E081E40E9403
:1003C000E600C5FB442740F965E081E40E94E600B1
:1003D000C4FB442740F964E081E40E94E60041E068
:1003E00063E082E40E94E6008FE39FE10197F1F76A
:1003F00000C0000040E063E082E40E94E600C3FB2E
:10040000442740F967E081E40E94E600C2FB4427EC
:1004100040F966E081E40E94E600C1FB442740F910
:1004200065E081E40E94E6004C2F417064E081E4C5
:100430000E94E60041E063E082E40E94E6008FE370
:100440009FE10197F1F700C0000040E063E082E423
:100450000E94E6008FE39FE10197F1F700C00000E2
:1004600080E0CF9108950F932FEF8FE891E0215016
:1004700080409040E1F700C0000041E061E082E48C
:100480000E946F0041E062E082E40E946F0041E060
:1004900063E082E40E946F0041E067E081E40E9433
:1004A0006F0041E066E081E40E946F0041E065E09A
:1004B00081E40E946F0041E064E081E40E946F00EB
:1004C00000E020E041E060E080E00E948E0120E05A
:1004D00041E060E080E00E948E0121E041E061E0C7
:1004E00081E00E948E018FE39FE10197F1F700C048
:1004F000000020E040E060E080E00E948E0121E00A
:1005000041E061E081E00E948E018FE39FE101976D
:10051000F1F700C0000020E040E060E080E00E94D1
:100520008E0121E040E060E080E00E948E018FE3D8
:100530009FE10197F1F700C0000020E040E060E09B
:1005400080E00E948E0121E041E060E080E00E94B6
:100550008E018FE39FE10197F1F700C0000080E07A
:100560000F910895CF93DF93EC018881882351F098
:1005700041E061E082E40E94E60061E089910E942E
:10058000C601F3CFDF91CF910895833068F46131D4
:1005900058F490E4899F600D1124862F60E0815CFF
:1005A0000E94C60180E0089581E0089560E081E046
:1005B0000E94C60180E0089561E00E94C60180E0CB
:1005C00008950F9300E020E040E060E080E00E94AA
:1005D0008E0120E040E061E081E00E948E0180E039
:1005E0000F9108954F925F926F927F928F929F9298
:1005F000AF92BF92CF92DF92EF92FF920F931F9331
:10060000CF93DF93EB01182F092F6B01E82EF92E02
:100610009AE0892E912CA12CB12C2AE0422E512C4B
:10062000612C712C85E6C816D104E104F10488F030
:10063000C701B601A30192010E94000469017A0179
:10064000AAE0B0E0A50194010E9422044B015C01E4
:10065000E9CF8AE0C82ED12CE12CF12C8114910431
:10066000A104B104D9F0BE01812F902FA5019401FE
:100670000E940004CA01B901A70196010E9400046A
:10068000862F61E0805D0E94C601C501B401A7010B
:1006900096010E94000449015A01E0CF80E0DF91F9
:1006A000CF911F910F91FF90EF90DF90CF90BF906F
:1006B000AF909F908F907F906F905F904F90089534
:1006C0000F9300E020E040E060E080E00E948E01B7
:1006D00021E041E061E081E00E948E0180E00F9125
:1006E0000895CF93883090F4C82F40E0682F81E4BC
:1006F0000E946F00C7B93D9A87B187B987B187B9A2
:10070000379A86B1866086B980E001C081E0CF91DA
:1007100008950097B9F0359B11C024B145B12295D9
:1007200026952695237030E054E0459F200D311D1D
:100730001124FC013183208380E00895369A349B94
:10074000FECFEBCF81E00895359A20B730E2839F4A
:10075000C0011124822B80BF369A809166008111DE
:1007600005C081E080936600349BFECF80E0089551
:10077000892B21F4109268001092670080E00895A0
:10078000339A80E00895339880E008951F920F9285
:100790000FB60F9211242F933F934F935F936F9354
:1007A0007F938F939F93AF93BF93EF93FF93E091CA
:1007B0006700F0916800309719F080E090E00995AB
:1007C000FF91EF91BF91AF919F918F917F916F9129
:1007D0005F914F913F912F910F900FBE0F901F90FF
:1007E0001895379A80E00895379880E0089588300A
:1007F00028F497B1892B87B980E0089581E00895A6
:10080000A1E21A2EAA1BBB1BFD010DC0AA1FBB1F14
:10081000EE1FFF1FA217B307E407F50720F0A21B86
:10082000B30BE40BF50B661F771F881F991F1A94F3
:1008300069F760957095809590959B01AC01BD011D
:10084000CF0108950E942D04A59F900DB49F900D97
:10085000A49F800D911D11240895A29FB001B39F04
:10086000C001A39F700D811D1124911DB29F700DB9
:0C087000811D1124911D0895F894FFCF04
:06087C006D76203D200016
:00000001FF
