:100000000C942A000C943F000C943F000C943F0089
:100010000C943F000C943F000C943F000C943F0064
:100020000C943F000C943F000C943F000C943F0054
:100030000C943F000C943F000C943F000C943F0044
:100040000C943F000C943F000C943F000C943F0034
:100050000C943F0011241FBECFE5D8E0DEBFCDBF1A
:1000600010E0A0E6B0E0EEEDF7E002C005900D92E2
:10007000AA36B107D9F70E9441000C94ED030C9405
:1000800000000E94730240E062E083E40E94BD0130
:1000900040E063E083E40E94BD0180E690E00E94BE
:1000A000F20268E081E00E94050360E070E0CB01AD
:1000B0000E943203D0E0C0E062E083E40E94BF010E
:1000C000882381F0C93070F4D1110BC0CF5F68E094
:1000D00081E00E9405036C2F70E080E090E00E94B8
:1000E0003203D1E062E083E40E94BF0163E083E475
:1000F0000E94BF01882381F0CC2371F0D1110BC085
:10010000C15068E081E00E9405036C2F70E080E040
:1001100090E00E943203D1E063E083E40E94BF01DB
:1001200063E083E40E94BF018111C6CF62E083E4F3
:100130000E94BF018111C0CFD0E0BECF683008F06F
:1001400070C0433008F06DC0823419F118F4813466
:1001500039F067C08334A9F1843409F44AC061C01E
:1001600041110AC02AB381E090E001C0880F6A956E
:10017000EAF7809582230BC0413009F054C02AB3BE
:1001800081E090E001C0880F6A95EAF7822B8ABB74
:100190004AC041110AC027B381E090E001C0880F36
:1001A0006A95EAF7809582230AC04130E1F527B3CA
:1001B00081E090E001C0880F6A95EAF7822B87BB47
:1001C00032C041110AC024B381E090E001C0880F21
:1001D0006A95EAF7809582230AC0413021F524B35D
:1001E00081E090E001C0880F6A95EAF7822B84BB1A
:1001F0001AC041110AC021B381E090E001C0880F0C
:100200006A95EAF7809582230AC0413061F421B3F0
:1002100081E090E001C0880F6A95EAF7822B81BBEC
:1002200002C081E0089580E00895683008F04BC076
:10023000423008F048C08234C1F018F4813431F003
:1002400042C0833409F1843471F13DC02BB381E0A5
:1002500090E001C0880F6A95EAF7411103C08095CC
:10026000822301C0822B8BBB2CC028B381E090E09D
:1002700001C0880F6A95EAF7411103C08095822377
:1002800001C0822B88BB1DC025B381E090E001C076
:10029000880F6A95EAF7411103C08095822301C057
:1002A000822B85BB0EC022B381E090E001C0880F95
:1002B0006A95EAF7411103C08095822301C0822B21
:1002C00082BB80E0089581E00895FA01683008F06B
:1002D00052C0823491F1C0F4813409F04CC029B38A
:1002E00081E090E0062E02C0880F991F0A94E2F781
:1002F00030E082239323062E02C0959587950A94B9
:10030000E2F7808389B32DC08334C9F0843499F532
:1003100020B381E090E0062E02C0880F991F0A9456
:10032000E2F730E082239323062E02C0959587954D
:100330000A94E2F7808380B314C026B301C023B3CC
:1003400081E090E0062E02C0880F991F0A94E2F720
:1003500030E08223932302C0959587956A95E2F752
:1003600007C090E002C0959587956A95E2F7817085
:10037000808380E0089581E008950C949E00CF93DF
:10038000DF931F92CDB7DEB7AE014F5F5F4F0E9484
:10039000650189810F90DF91CF910895FF920F93AE
:1003A0001F93CF93DF93F82E162FD42FC22F402FF9
:1003B00061E082E40E94150141E063E082E40E9472
:1003C00015014F2D67E081E40E941501412F66E081
:1003D00081E40E9415014D2F65E081E40E94150122
:1003E0004C2F64E081E40E94150140E063E082E468
:1003F0000E9415018FE39FE10197F1F700C0000013
:10040000DF91CF911F910F91FF900895CF93C82F47
:10041000462F61E082E40E94150140E063E082E43F
:100420000E9415014C2F441F4427441F67E081E4BC
:100430000E941501C6FB442740F966E081E40E9452
:100440001501C5FB442740F965E081E40E941501D0
:10045000C4FB442740F964E081E40E94150141E0B7
:1004600063E082E40E9415018FE39FE10197F1F7B9
:1004700000C0000040E063E082E40E941501C3FB7D
:10048000442740F967E081E40E941501C2FB44273C
:1004900040F966E081E40E941501C1FB442740F960
:1004A00065E081E40E9415014C2F417064E081E415
:1004B0000E94150141E063E082E40E9415018FE390
:1004C0009FE10197F1F700C0000040E063E082E4A3
:1004D0000E9415018FE39FE10197F1F700C0000032
:1004E00080E0CF9108950F932FEF8FE891E0215096
:1004F00080409040E1F700C0000041E061E082E40C
:100500000E949E0041E062E082E40E949E0041E081
:1005100063E082E40E949E0041E067E081E40E9483
:100520009E0041E066E081E40E949E0041E065E0BB
:1005300081E40E949E0041E064E081E40E949E000C
:1005400000E020E041E060E080E00E94CE0120E099
:1005500041E060E080E00E94CE0121E041E061E006
:1005600081E00E94CE018FE39FE10197F1F700C087
:10057000000020E040E060E080E00E94CE0121E049
:1005800041E061E081E00E94CE018FE39FE10197AD
:10059000F1F700C0000020E040E060E080E00E9451
:1005A000CE0121E040E060E080E00E94CE018FE3D8
:1005B0009FE10197F1F700C0000020E040E060E01B
:1005C00080E00E94CE0121E041E060E080E00E94F6
:1005D000CE018FE39FE10197F1F700C0000080E0BA
:1005E0000F910895CF93DF93EC018881882351F018
:1005F00041E061E082E40E94150161E089910E947E
:100600000602F3CFDF91CF910895833068F4613112
:1006100058F490E4899F600D1124862F60E0815C7E
:100620000E94060280E0089581E0089560E081E084
:100630000E94060280E0089561E00E94060280E0C8
:1006400008950F9300E020E040E060E080E00E9429
:10065000CE0120E040E061E081E00E94CE0180E038
:100660000F9108954F925F926F927F928F929F9217
:10067000AF92BF92CF92DF92EF92FF920F931F93B0
:10068000CF93DF93EB01182F092F6B01E82EF92E82
:100690009AE0892E912CA12CB12C2AE0422E512CCB
:1006A000612C712C85E6C816D104E104F10488F0B0
:1006B000C701B601A30192010E94B10369017A0149
:1006C000AAE0B0E0A50194010E94D3034B015C01B4
:1006D000E9CF8AE0C82ED12CE12CF12C81149104B1
:1006E000A104B104D9F0BE01812F902FA50194017E
:1006F0000E94B103CA01B901A70196010E94B1038A
:10070000862F61E0805D0E940602C501B401A70149
:1007100096010E94B10349015A01E0CF80E0DF91C8
:10072000CF911F910F91FF90EF90DF90CF90BF90EE
:10073000AF909F908F907F906F905F904F900895B3
:100740000F9300E020E040E060E080E00E94CE01F6
:1007500021E041E061E081E00E94CE0180E00F9164
:100760000895A1E21A2EAA1BBB1BFD010DC0AA1FF2
:10077000BB1FEE1FFF1FA217B307E407F50720F00A
:10078000A21BB30BE40BF50B661F771F881F991F85
:100790001A9469F760957095809590959B01AC01CE
:1007A000BD01CF0108950E94DE03A59F900DB49F67
:1007B000900DA49F800D911D11240895A29FB0015A
:1007C000B39FC001A39F700D811D1124911DB29F85
:0E07D000700D811D1124911D0895F894FFCF26
:0A07DE004E756D626572203D20002B
:00000001FF
