:100000000C942A000C943F000C943F000C943F0089
:100010000C943F000C943F000C943F000C943F0064
:100020000C943F000C943F000C943F000C943F0054
:100030000C943F000C943F000C943F000C943F0044
:100040000C943F000C943F000C943F000C943F0034
:100050000C943F0011241FBECFE5D8E0DEBFCDBF1A
:1000600010E0A0E6B0E0E2EEF7E002C005900D92ED
:10007000AA36B107D9F70E9441000C94EF030C9403
:1000800000000E94750240E062E083E40E94BF012C
:1000900040E063E083E40E94BF0180E690E00E94BC
:1000A000F40268E081E00E94070360E070E0CB01A9
:1000B0000E9434030E942303D0E0C0E062E083E4A6
:1000C0000E94C101882381F0C93070F4D1110BC0A6
:1000D000CF5F68E081E00E9407036C2F70E080E052
:1000E00090E00E943403D1E062E083E40E94C10109
:1000F00063E083E40E94C101882381F0CC2371F086
:10010000D1110BC0C15068E081E00E9407036C2F41
:1001100070E080E090E00E943403D1E063E083E48B
:100120000E94C10163E083E40E94C1018111C6CF36
:1001300062E083E40E94C1018111C0CFD0E0BECF54
:10014000683008F070C0433008F06DC0823419F197
:1001500018F4813439F067C08334A9F1843409F488
:100160004AC061C041110AC02AB381E090E001C0D9
:10017000880F6A95EAF7809582230BC0413009F019
:1001800054C02AB381E090E001C0880F6A95EAF775
:10019000822B8ABB4AC041110AC027B381E090E09C
:1001A00001C0880F6A95EAF7809582230AC0413022
:1001B000E1F527B381E090E001C0880F6A95EAF786
:1001C000822B87BB32C041110AC024B381E090E08A
:1001D00001C0880F6A95EAF7809582230AC04130F2
:1001E00021F524B381E090E001C0880F6A95EAF719
:1001F000822B84BB1AC041110AC021B381E090E078
:1002000001C0880F6A95EAF7809582230AC04130C1
:1002100061F421B381E090E001C0880F6A95EAF7AC
:10022000822B81BB02C081E0089580E00895683090
:1002300008F04BC0423008F048C08234C1F018F4D6
:10024000813431F042C0833409F1843471F13DC00E
:100250002BB381E090E001C0880F6A95EAF7411165
:1002600003C08095822301C0822B8BBB2CC028B396
:1002700081E090E001C0880F6A95EAF7411103C060
:100280008095822301C0822B88BB1DC025B381E0ED
:1002900090E001C0880F6A95EAF7411103C080958C
:1002A000822301C0822B85BB0EC022B381E090E087
:1002B00001C0880F6A95EAF7411103C08095822337
:1002C00001C0822B82BB80E0089581E00895FA018D
:1002D000683008F052C0823491F1C0F4813409F0E2
:1002E0004CC029B381E090E0062E02C0880F991F10
:1002F0000A94E2F730E082239323062E02C09595FC
:1003000087950A94E2F7808389B32DC08334C9F0BE
:10031000843499F520B381E090E0062E02C0880F66
:10032000991F0A94E2F730E082239323062E02C03D
:10033000959587950A94E2F7808380B314C026B31D
:1003400001C023B381E090E0062E02C0880F991F00
:100350000A94E2F730E08223932302C095958795B3
:100360006A95E2F707C090E002C0959587956A9577
:10037000E2F78170808380E0089581E008950C9415
:10038000A000CF93DF931F92CDB7DEB7AE014F5FD2
:100390005F4F0E94670189810F90DF91CF9108958F
:1003A000FF920F931F93CF93DF93F82E162FD42F26
:1003B000C22F402F61E082E40E94170141E063E018
:1003C00082E40E9417014F2D67E081E40E9417012B
:1003D000412F66E081E40E9417014D2F65E081E422
:1003E0000E9417014C2F64E081E40E94170140E055
:1003F00063E082E40E9417018FE39FE10197F1F728
:1004000000C00000DF91CF911F910F91FF900895E0
:10041000CF93C82F462F61E082E40E94170140E08D
:1004200063E082E40E9417014C2F441F4427441FBD
:1004300067E081E40E941701C6FB442740F966E0AB
:1004400081E40E941701C5FB442740F965E081E47F
:100450000E941701C4FB442740F964E081E40E9434
:10046000170141E063E082E40E9417018FE39FE1FE
:100470000197F1F700C0000040E063E082E40E94D1
:100480001701C3FB442740F967E081E40E9417018C
:10049000C2FB442740F966E081E40E941701C1FBDA
:1004A000442740F965E081E40E9417014C2F417018
:1004B00064E081E40E94170141E063E082E40E946D
:1004C00017018FE39FE10197F1F700C0000040E0C2
:1004D00063E082E40E9417018FE39FE10197F1F747
:1004E00000C0000080E0CF9108950F932FEF8FE8B8
:1004F00091E0215080409040E1F700C0000041E0D1
:1005000061E082E40E94A00041E062E082E40E9497
:10051000A00041E063E082E40E94A00041E067E0C7
:1005200081E40E94A00041E066E081E40E94A00016
:1005300041E065E081E40E94A00041E064E081E4E4
:100540000E94A00000E020E041E060E080E00E9426
:10055000D00120E041E060E080E00E94D00121E095
:1005600041E061E081E00E94D0018FE39FE10197CB
:10057000F1F700C0000020E040E060E080E00E9471
:10058000D00121E041E061E081E00E94D0018FE3F1
:100590009FE10197F1F700C0000020E040E060E03B
:1005A00080E00E94D00121E040E060E080E00E9415
:1005B000D0018FE39FE10197F1F700C0000020E038
:1005C00040E060E080E00E94D00121E041E060E096
:1005D00080E00E94D0018FE39FE10197F1F700C016
:1005E000000080E00F910895CF93DF93EC018881A4
:1005F000882351F041E061E082E40E94170161E04C
:1006000089910E940802F3CFDF91CF910895833042
:1006100068F4613158F490E4899F600D1124862FAD
:1006200060E0815C0E94080280E0089581E0089506
:1006300060E081E00E94080280E0089561E00E948D
:10064000080280E008950F9300E020E040E060E0C1
:1006500080E00E94D00120E040E061E081E00E9463
:10066000D00180E00F9108954F925F926F927F9238
:100670008F929F92AF92BF92CF92DF92EF92FF92B2
:100680000F931F93CF93DF93EB01182F092F6B016B
:10069000E82EF92E9AE0892E912CA12CB12C2AE07B
:1006A000422E512C612C712C85E6C816D104E10430
:1006B000F10488F0C701B601A30192010E94B303BF
:1006C00069017A01AAE0B0E0A50194010E94D50376
:1006D0004B015C01E9CF8AE0C82ED12CE12CF12C32
:1006E00081149104A104B104D9F0BE01812F902F8F
:1006F000A50194010E94B303CA01B901A7019601A3
:100700000E94B303862F61E0805D0E940802C5014C
:10071000B401A70196010E94B30349015A01E0CF39
:1007200080E0DF91CF911F910F91FF90EF90DF90CC
:10073000CF90BF90AF909F908F907F906F905F9081
:100740004F9008950F9300E020E040E060E080E0EB
:100750000E94D00121E041E061E081E00E94D001EF
:1007600080E00F910895A1E21A2EAA1BBB1BFD0188
:100770000DC0AA1FBB1FEE1FFF1FA217B307E40780
:10078000F50720F0A21BB30BE40BF50B661F771FD8
:10079000881F991F1A9469F76095709580959095B8
:1007A0009B01AC01BD01CF0108950E94E003A59F0C
:1007B000900DB49F900DA49F800D911D112408955C
:1007C000A29FB001B39FC001A39F700D811D112492
:1007D000911DB29F700D811D1124911D0895F894F3
:0207E000FFCF49
:0A07E2004E756D626572203D200027
:00000001FF
